:020000040800F2
:10000000000002201D2E0008A52D0008A72D0008C5
:10001000A92D0008AB2D0008AD2D00080000000040
:10002000000000000000000000000000AF2D0008EC
:10003000B12D000800000000B32D0008B52D000808
:100040006D2E00086D2E00086D2E00086D2E000824
:100050006D2E00086D2E00086D2E00086D2E000814
:100060006D2E00086D2E00086D2E00086D2E000804
:100070006D2E00086D2E00086D2E00086D2E0008F4
:100080006D2E00086D2E00086D2E00086D2E0008E4
:100090006D2E00086D2E00086D2E00086D2E0008D4
:1000A0006D2E00086D2E00086D2E00086D2E0008C4
:1000B0006D2E00086D2E00086D2E00086D2E0008B4
:1000C0006D2E00086D2E00086D2E00086D2E0008A4
:1000D0006D2E00086D2E00086D2E00086D2E000894
:1000E0006D2E00086D2E00086D2E00086D2E000884
:1000F0006D2E00086D2E00086D2E00086D2E000874
:100100006D2E00086D2E00086D2E00086D2E000863
:100110006D2E00086D2E0008C12D00086D2E000800
:100120006D2E00086D2E00086D2E00086D2E000843
:100130006D2E000800000000000000006D2E000879
:100140006D2E00086D2E00086D2E00086D2E000823
:100150006D2E00086D2E00086D2E00086D2E000813
:100160006D2E00086D2E00086D2E00086D2E000803
:100170006D2E00086D2E00086D2E00080000000096
:10018000000000006D2E00080000000000000000CC
:100190006D2E000800000000000000006D2E000819
:1001A0000000000000000000000000006D2E0008AC
:1001B0006D2E00086D2E00086D2E00086D2E0008B3
:0401C0006D2E000898
:1001D00010B5054C237833B9044B13B10448AFF381
:1001E00000800123237010BD70000020000000007B
:1001F000DC36000808B5034B1BB103490348AFF3D5
:10020000008008BD0000000074000020DC360008FB
:1002100081F0004102E000BF83F0004330B54FEAB7
:1002200041044FEA430594EA050F08BF90EA020F24
:100230001FBF54EA000C55EA020C7FEA645C7FEAB7
:10024000655C00F0E2804FEA5454D4EB5555B8BFDA
:100250006D420CDD2C4480EA020281EA030382EA4B
:10026000000083EA010180EA020281EA0303362DDD
:1002700088BF30BD11F0004F4FEA01314FF4801CB0
:100280004CEA113102D0404261EB410113F0004FC2
:100290004FEA03334CEA133302D0524263EB430379
:1002A00094EA050F00F0A780A4F10104D5F1200E17
:1002B0000DDB02FA0EFC22FA05F2801841F1000172
:1002C00003FA0EF2801843FA05F359410EE0A5F146
:1002D00020050EF1200E012A03FA0EFC28BF4CF077
:1002E000020C43FA05F3C01851EBE37101F000452D
:1002F00007D54FF0000EDCF1000C7EEB00006EEB3A
:100300000101B1F5801F1BD3B1F5001F0CD34908C3
:100310005FEA30004FEA3C0C04F101044FEA44521A
:1003200012F5800F80F09A80BCF1004F08BF5FEAA1
:10033000500C50F1000041EB045141EA050130BD81
:100340005FEA4C0C404141EB010111F4801FA4F124
:100350000104E9D191F0000F04BF01460020B1FA79
:1003600081F308BF2033A3F10B03B3F120020CDAB1
:100370000C3208DD02F1140CC2F10C0201FA0CF08F
:1003800021FA02F10CE002F11402D8BFC2F1200CF4
:1003900001FA02F120FA0CFCDCBF41EA0C019040AA
:1003A000E41AA2BF01EB0451294330BD6FEA0404F3
:1003B0001F3C1CDA0C340EDC04F11404C4F12002DE
:1003C00020FA04F001FA02F340EA030021FA04F3F0
:1003D00045EA030130BDC4F10C04C4F1200220FA47
:1003E00002F001FA04F340EA0300294630BD21FA85
:1003F00004F0294630BD94F0000F83F4801306BF4B
:1004000081F480110134013D4EE77FEA645C18BF3E
:100410007FEA655C29D094EA050F08BF90EA020FD5
:1004200005D054EA000C04BF1946104630BD91EACD
:10043000030F1EBF0021002030BD5FEA545C05D1D0
:100440004000494128BF41F0004130BD14F580040F
:100450003CBF01F5801130BD01F0004545F0FE4183
:1004600041F470014FF0000030BD7FEA645C1ABFB8
:10047000194610467FEA655C1CBF0B46024650EAEF
:10048000013406BF52EA033591EA030F41F400211B
:1004900030BD00BF90F0000F04BF0021704730B5A1
:1004A0004FF4806404F132044FF000054FF0000176
:1004B00050E700BF90F0000F04BF0021704730B537
:1004C0004FF4806404F1320410F0004548BF40420C
:1004D0004FF000013EE700BF42004FEAE2014FEA61
:1004E00031014FEA02701FBF12F07F4393F07F4F3C
:1004F00081F06051704732F07F4208BF704793F03F
:100500007F4F04BF41F40021704730B54FF4607451
:1005100001F0004521F000411CE700BF50EA010254
:1005200008BF704730B54FF000050AE050EA0102FD
:1005300008BF704730B511F0004502D5404261EB6D
:1005400041014FF4806404F132045FEA915C3FF4AE
:10055000D8AE4FF003025FEADC0C18BF03325FEA4B
:10056000DC0C18BF033202EBDC02C2F1200300FAFC
:1005700003FC20FA02F001FA03FE40EA0E0021FA21
:1005800002F11444BDE600BF4FEA4102B2F1E0437C
:1005900024BFB3F5001CDCF1FE5C0DD901F0004C6A
:1005A0004FEAC0024CEA5070B2F1004F40EB8300BA
:1005B00008BF20F00100704711F0804F21D113F1E6
:1005C0003872BCBF01F00040704741F480114FEA1F
:1005D0005252C2F11802C2F1200C10FA0CF320FAA8
:1005E00002F018BF40F001004FEAC1234FEAD323C5
:1005F00003FA0CFC40EA0C0023FA02F34FEA43032F
:10060000CCE77FEA625307D150EA01331EBF4FF0B7
:10061000FE4040F44000704701F0004040F0FE40D2
:1006200040F40000704700BF53B94AB9002908BF21
:1006300000281CBF4FF0FF314FF0FF3000F072B9BF
:10064000ADF1080C6DE904CE00F006F8DDF804E029
:10065000DDE9022304B070472DE9F047089E044607
:100660008846002B4BD18A42154667D9B2FA82F2EE
:100670004AB1C2F1200701FA02F320FA07F79540C8
:1006800047EA030894404FEA154E230CB8FBFEF7E7
:100690001FFA85FC0EFB178843EA084307FB0CF1A1
:1006A000994209D9EB1807F1FF3080F01B8199427C
:1006B00040F21881023F2B445B1AA4B2B3FBFEF058
:1006C0000EFB103344EA034400FB0CFCA44509D99B
:1006D0002C1900F1FF3380F00781A44540F204811A
:1006E00002382C4440EA0740A4EB0C0400271EB15A
:1006F000D4400023C6E900433946BDE8F0878B4269
:1007000009D9002E00F0EB800027C6E90001384629
:100710003946BDE8F087B3FA83F7002F47D18B4203
:1007200002D3824200F2FA80841A61EB03030120B3
:100730009846002EE0D0C6E90048DDE702B9FFDEAA
:10074000B2FA82F2002A40F08F80491B4FEA154E20
:100750001FFA85F80127B1FBFEFC230C0EFB1C11D0
:1007600043EA014308FB0CF1994207D9EB180CF15D
:10077000FF3002D2994200F2CD808446591AA3B2CA
:10078000B1FBFEF00EFB101443EA044408FB00F832
:10079000A04507D92C1900F1FF3302D2A04500F281
:1007A000B6801846A4EB080440EA0C409FE7C7F166
:1007B000200CBB4022FA0CFE4EEA030E01FA07F4AD
:1007C00020FA0CF521FA0CF34FEA1E482543B3FB3F
:1007D000F8F92C0C08FB19331FFA8EFA44EA03438C
:1007E00009FB0AF49C4202FA07F200FA07F10BD95E
:1007F0001EEB030309F1FF3080F087809C4240F23A
:100800008480A9F1020973441B1BADB2B3FBF8F05D
:1008100008FB103345EA034400FB0AFAA24508D955
:100820001EEB040400F1FF336BD2A24569D90238F4
:10083000744440EA0940A0FB0289A4EB0A044C4539
:10084000C2464B4654D351D0002E69D0B1EB0A05B5
:1008500064EB030404FA0CFCFD40FC404CEA050583
:10086000C6E90054002747E7C2F1200320FA03F746
:10087000954001FA02F021FA03F34FEA154E38438E
:10088000010CB3FBFEF71FFA85F80EFB173341EAA4
:10089000034107FB08F38B4204FA02F407D96918F5
:1008A00007F1FF3C2FD28B422DD9023F2944CB1AAE
:1008B00081B2B3FBFEF00EFB103341EA034100FBB3
:1008C00008F38B4207D9691800F1FF3C17D28B421D
:1008D00015D902382944C91A40EA07473BE7374689
:1008E000304609E70746E7E61846FBE64145ABD246
:1008F000B8EB020A69EB0E0201381346A4E7604622
:10090000E9E7184695E76746D1E781467CE7023874
:100910002C4447E7ACF1020C2B442FE7384608E79C
:100920003746E9E6704700BF034613F8012B002A5B
:10093000FBD1181A013870470000000000000000C9
:1009400001F0FF01102A2BDB10F0070F08D010F880
:10095000013B013A8B422DD010F0070F42B3F6D184
:10096000F0B441EA012141EA014122F007047FF09D
:1009700000070023F0E80256083C85EA010586EAF4
:10098000010685FA47F5A3FA87F586FA47F6A5FA30
:1009900087F68EB9EED1F0BC01F0FF0102F007023C
:1009A00032B110F8013B013A83EA010313B1F8D1E7
:1009B0000020704701387047002D06BF35460338C8
:1009C000073815F0010F07D1013015F4807F02BF01
:1009D000013015F4C03F0130F0BC0138704700BF52
:1009E00010B504460E4B18784FF47A73B3FBF0F34E
:1009F0000C4A1068B0FBF3F000F0A8F868B90F2CAF
:100A000001D901200AE0002221464FF0FF3000F01A
:100A10005DF8034B5C60002000E0012010BD00BFCA
:100A2000000000200800002008B50B4B1A6842F4B3
:100A300000721A601A6842F480621A601A6842F4FE
:100A400080721A60032000F02FF80020FFF7C8FF23
:100A500002F0CEF8002008BD003C0240034A1168B5
:100A6000034B1B780B441360704700BF98000020B5
:100A700000000020014B1868704700BF980000205C
:100A800038B50446FFF7F6FF0546B4F1FF3F02D044
:100A9000044B1B781C44FFF7EDFF401BA042FAD328
:100AA00038BD00BF00000020074AD36823F4E0638C
:100AB0001B041B0C000200F4E060184340F0BF6010
:100AC00040F40030D060704700ED00E030B4174BC8
:100AD000DB68C3F30223C3F10704042C28BF0424FA
:100AE0001D1D062D18D9033B4FF0FF3505FA04F400
:100AF00021EA0401994005FA03F322EA03031943AA
:100B000000280BDB0901C9B200F1604000F561402B
:100B100080F8001330BC70470023E5E700F00F00B9
:100B20000901C9B2024B1954F4E700BF00ED00E01F
:100B300014ED00E000F01F02400901239340024A37
:100B400042F82030704700BF00E100E00138B0F10A
:100B5000807F0AD2064B5860064AF02182F82310A3
:100B60000020986007221A6070470120704700BF7C
:100B700010E000E000ED00E0042805D0054A13680D
:100B800023F0040313607047024A136843F0040320
:100B90001360704710E000E0704708B5FFF7FCFFF6
:100BA00008BD000000230F2B00F2D180F0B482B00A
:100BB00039E0062200E00022B2403A430234644E9B
:100BC00046F82420634A1468EA4302EA04064F68A0
:100BD00017F4803F01D045EA04065E4C2660646845
:100BE00002EA04064F6817F4003F01D045EA040604
:100BF000584C6660A46802EA04064F6817F4801F28
:100C000001D045EA0406534CA660E46822404E68D1
:100C100016F4001F01D045EA04024E4CE260013395
:100C20000F2B00F2918001229A400C6804EA020521
:100C3000AA42F4D14C68022C01D0122C10D1DE084B
:100C4000083650F826C003F00704A7000F24BC4064
:100C50002CEA040C0C69BC4044EA0C0440F8264021
:100C600004685F000326BE40F64306EA040C4C68A5
:100C700004F00304BC4044EA0C0404604C6804F132
:100C8000FF3CBCF1010F03D9112C01D0122C10D163
:100C9000846806EA040CCC68BC4044EA0C04846016
:100CA000446824EA02024C68C4F300149C401443D4
:100CB0004460C26816408A68BA403243C2604A68DB
:100CC00012F0805FABD000220192234A546C44F4AE
:100CD00080445464526C02F480420192019A9C0850
:100CE000A61C1B4A52F8267003F0030296000F223E
:100CF000B24027EA0207194A90423FF45CAF02F57E
:100D00008062904216D002F58062904214D002F5C3
:100D10008062904212D002F58062904210D002F5BB
:100D2000806290420ED002F5806290423FF441AF63
:100D3000072241E701223FE702223DE703223BE78A
:100D4000042239E7052237E702B0F0BC704770474C
:100D500000380140003C01400038024000000240E1
:100D600003685A6912F4806F0DD06FF480625A6183
:100D70000423036400230363202280F83D2080F8CD
:100D80003C300120704700207047F8B506460C46FD
:100D900017461D461EE02DB1FFF76CFE069BC01ADC
:100DA000A84217D900233363202286F83D2086F815
:100DB0003E3086F83C3003201AE033685B6924EA51
:100DC00003039BB2B3FA83F35B099F420FD1B5F1E2
:100DD000FF3FE0D1C4F30743012BEED033689B699A
:100DE00024EA03039BB2B3FA83F35B09EDE7002027
:100DF000F8BDF8B504460D4616461F4632E01A689F
:100E000042F400721A6023686FF480625A6104230E
:100E1000236400232363202284F83D2084F83C309F
:100E200001202DE026B1FFF725FEC01BB04219D9E5
:100E300000232363202284F83D2084F83C300320E3
:100E40001EE023685B6925EA03039BB2003318BFE9
:100E50000123A3B123685A6912F4806FCFD1B6F190
:100E6000FF3FDFD1C5F30743012BEAD023689B691D
:100E700025EA03039BB2003318BF0123E9E70020F2
:100E8000F8BD0000F0B583B004460D4616461F4677
:100E9000C36A042B0DD0012B0BD013F5803F08D073
:100EA000036B122B0AD10268136843F4807313603A
:100EB00004E02268136843F480731360009733469C
:100EC00000224FF001112046FFF75FFF58BB236956
:100ED000B3F5804F10D1236805F0FE051D613B4638
:100EE000324615492046FFF784FF0346E0B1236CE4
:100EF000042B1ED1012317E0EB11226803F0060337
:100F000043F0F00313613B4632460C492046FFF79D
:100F100070FF20B1236C042B09D1012304E0236866
:100F2000EDB21D61DBE70323184603B0F0BD0323D8
:100F3000FAE70323F8E700BF020001000800010000
:100F40002DE9F04184B004460D4616461F46C26A9C
:100F500001680B6843F480630B60042A0DD0012AFA
:100F60000BD012F5803F08D0036B112B0AD1026819
:100F7000136843F48073136004E02268136843F439
:100F8000807313600097334600224FF00111204612
:100F9000FFF7FBFE002852D12369B3F5804F12D131
:100FA000236845F00105EDB21D613B4632462A49F2
:100FB0002046FFF71EFF0346002841D0236C042B78
:100FC00048D101233CE04FEAE51808F00608236801
:100FD00048F0F0021A613B46324620492046FFF7AE
:100FE00008FF20B1236C042B2ED1012328E02368B5
:100FF000EDB21D613B46324617492046FFF7F9FE28
:1010000020B1236C042B21D1012319E0002203928B
:10101000236859690391996903910399196841F407
:1010200080711960009733464FF001112046FFF799
:10103000ACFE68B9226848F0F1031361B5E70323F9
:10104000184604B0BDE8F0810323F9E70323F7E76E
:101050000323F5E70323F3E7020001000800010082
:1010600070B504460D46164623685B6913F0800F81
:1010700019D12046FFF774FEB8B9B5F1FF3FF3D0A0
:1010800025B1FFF7F7FC801BA842EDD9236C43F094
:101090002003236400232363202284F83D2084F866
:1010A0003C30032000E0002070BD0120FCE770B55B
:1010B00004460D46164623685B6913F0040F19D1E8
:1010C0002046FFF74DFEB8B9B5F1FF3FF3D025B18B
:1010D000FFF7D0FC801BA842EDD9236C43F020031E
:1010E000236400232363202284F83D2084F83C30CD
:1010F000032000E0002070BD0120FCE770B505462C
:101100000C4616462B685A6912F0400F22D15A69D4
:1011100012F0100F11D124B1FFF7ACFC801BA042DC
:10112000F0D92B6C43F020032B64202385F83D304D
:10113000002385F83C30032070BD6FF010025A6127
:1011400000232B642B63202285F83D2085F83C305A
:101150000120F1E70020EFE7002800F0828010B5C1
:10116000044690F83D30002B41D0242384F83D30D4
:101170002268136823F00103136000F063FB3A4B0D
:10118000A3FB00239B0C226853606168374A91429D
:1011900032D80133226813626368344A934235D8E7
:1011A0005B00B0FBF3F0C0F30B03032B00D804206B
:1011B0002368D861E369216A22680B4313602369BD
:1011C000E16822680B4393606369A16922680B435D
:1011D000D3602268136843F0010313600020206489
:1011E000202384F83D30206384F83E0010BD80F851
:1011F0003C3001F047FDB8E74FF4967202FB03F371
:101200001B4AA2FB03239B090133C3E7A16889B9E9
:1012100003EB4302B0FBF2F2C2F30B02B2FA82F22A
:101220005209E2B991B903EB4303B0FBF3F040F488
:101230000040BDE703EB830202EB8202B0FBF2F257
:10124000C2F30B02B2FA82F25209EAE703EB83031C
:1012500003EB8303B0FBF3F040F44040A8E7012028
:10126000A6E70120704700BF83DE1B43A086010074
:10127000D34D62102DE9F04184B004460E469046ED
:101280001F46FFF7F7FB94F83D30DBB2202B04D06C
:101290000226304604B0BDE8F081054600901923CF
:1012A000012254492046FFF770FD002840F0998044
:1012B00094F83C30012B00F09680012384F83C30F8
:1012C00023681A6812F0010F03D11A6842F0010274
:1012D0001A602268136823F400631360212384F8E2
:1012E0003D30102384F83E3000232364C4F824806A
:1012F0006785A3F58033E362638D23852B460A9AC5
:1013000031462046FFF7BEFD064660B1236C042B34
:1013100004D1002384F83C300126BAE7002384F886
:101320003C300326B5E70023039323685A690392F0
:101330009B690393039B10E0236C042B55D1226817
:10134000136843F4007313600126A2E72A460A9942
:101350002046FFF7ACFE00282BD1238D002B32D086
:101360002A460A992046FFF77BFE0028E4D1636AEB
:101370005A1C626222681B781361638D013B9BB229
:101380006385238D013B9BB223852268516911F04F
:10139000040FDBD0002BD9D0636A591C61621B7823
:1013A0001361638D013B9BB26385238D013B2385D4
:1013B000CCE7236C042B1AD12268136843F4007322
:1013C0001360012665E72268136843F40073136015
:1013D000202384F83D30002384F83E3084F83C30EC
:1013E00057E7022655E7022653E7032651E703266F
:1013F0004FE700BF020010002DE9F04186B004461F
:101400000E4690461F46FFF735FB94F83D30DBB2A1
:10141000202B04D00226304606B0BDE8F0810546F8
:101420000090192301228C492046FFF7AEFC0028CA
:1014300040F04B8194F83C30012B00F048810123AF
:1014400084F83C3023681A6812F0010F03D11A683F
:1014500042F001021A602268136823F400631360EB
:10146000222384F83D30102384F83E300023236487
:10147000C4F824806785A3F58033E362638D2385F8
:101480002B460C9A31462046FFF75AFD064660B1BE
:10149000236C042B04D1002384F83C300126BAE7E6
:1014A000002384F83C300326B5E7238D5BB9029313
:1014B00023685A6902929A690292029A1A6842F45F
:1014C00000721A607AE0012B0FD0022B1FD0226825
:1014D000136843F4806313600023059323685A69FB
:1014E00005929B690593059B68E02268136823F4C5
:1014F000806313600023039323685A6903929A69F7
:101500000392039A1A6842F400721A6056E0226845
:10151000136823F4806313602268136843F4006344
:1015200013600023049323685A6904929B6904930F
:10153000049B43E02A460C992046FFF7DFFD68B97B
:1015400023681A69636A591C61621A70238D013B12
:101550002385638D013B9BB263852FE0236C202B99
:1015600001D0012657E7032655E700950C9B002282
:101570003A492046FFF709FC002840F0AA8022687B
:10158000136843F40073136023681A69636A591C73
:1015900061621A70238D013B2385638D013B9BB2F1
:1015A000638523681A69636A591C61621A70238D06
:1015B000013B2385638D013B9BB26385238D002B0B
:1015C0007AD0032B4CD8012BB4D0022BCDD0009570
:1015D0000C9B002221492046FFF7D7FB00287AD137
:1015E0002268136823F48063136023681A69636AAE
:1015F000591C61621A70238D013B2385638D013B69
:101600009BB2638500950C9B002214492046FFF78E
:10161000BCFB002861D12268136843F40073136097
:1016200023681A69636A591C61621A70238D013B31
:101630002385638D013B9BB2638523681A69636AC6
:10164000591C61621A70238D013B2385638D013B18
:101650009BB26385B2E700BF0200100004000100E6
:101660002A460C992046FFF749FDF0B923681A690C
:10167000636A591C61621A70238D013B2385638D57
:10168000013B9BB2638523685A6912F0040F95D021
:101690001A69636A591C61621A70238D013B2385A4
:1016A000638D013B9BB2638588E7236C202B01D0BF
:1016B0000126B0E60326AEE6202384F83D30002361
:1016C00084F83E3084F83C30A5E60226A3E60226E4
:1016D000A1E603269FE603269DE603269BE600BFC0
:1016E000002800F09D8070B504464F4B1B6803F046
:1016F0000F038B4209D2CBB24B4A1370136803F02D
:101700000F038B4201D0012070BD236813F0020F3C
:1017100017D013F0040F04D0444A936843F4E05305
:101720009360236813F0080F04D0404A936843F491
:10173000604393603D4A936823F0F003A06803433D
:1017400093600D46236813F0010F32D06368012BBC
:1017500021D09A1E012A25D9344A126812F0020FAC
:1017600060D032498A6822F0030213438B60FFF78E
:1017700081F906462D4B9B6803F00C036268B3EBBE
:10178000820F16D0FFF776F9801B41F2883398421A
:10179000F0D90320B8E7254A126812F4003FE0D1DF
:1017A0000120B1E7214A126812F0007FD9D101204F
:1017B000AAE71D4B1B6803F00F03AB4209D9EAB23D
:1017C000194B1A701B6803F00F03AB4201D00120C4
:1017D0009AE7236813F0040F06D0144A936823F4A1
:1017E000E053E1680B439360236813F0080F07D0C0
:1017F0000E4A936823F46043216943EAC10393606E
:1018000000F040F8094B9B68C3F30313084AD35C0C
:10181000D840084B18600020FFF7E2F8002073E77B
:101820000120704701206FE7003C02400038024071
:10183000F436000808000020014B1868704700BF0C
:101840000800002008B5FFF7F7FF044B9B68C3F3BF
:101850008223034AD35CD84008BD00BF0038024051
:101860000437000808B5FFF7E7FF044B9B68C3F394
:101870004233034AD35CD84008BD00BF0038024061
:10188000043700082DE9F04B444B9B6803F00C0330
:10189000082B06D00C2B42D0042B7CD04048BDE84E
:1018A000F08B3E4B5A6802F03F025B6813F4800FE6
:1018B00012D03A4B5968C1F3881100233948A1FB73
:1018C0000001FEF7B1FE354B5B68C3F30143013302
:1018D0005B00B0FBF3F0E2E7304B5B68C3F38813C7
:1018E0001E4600275C010025E41A65EB0705A901E7
:1018F00041EA9461A001001B61EB0501CB0043EAC2
:101900005073C400A01943EB07018B0243EA9053C4
:101910008402204619460023FEF786FED3E71F4BBC
:101920005A6802F03F025B6813F4800F10D01B4B23
:101930005968C1F3881100231A48A1FB0001FEF782
:1019400073FE164B5B68C3F30273B0FBF3F0A6E7BC
:10195000124B5B68C3F388131E4600275C01002509
:10196000E41A65EB0705A90141EA9461A001001B97
:1019700061EB0501CB0043EA5073C400A01943EBAF
:1019800007018B0243EA9053840220461946002344
:10199000FEF74AFED5E7034881E700BF0038024062
:1019A0000024F40040787D0170B582B004460368DD
:1019B00013F0010F41D0A64B9B6803F00C03042BDE
:1019C00032D0A34B9B6803F00C03082B27D0A04B0D
:1019D0009B6803F00C030C2B59D06368B3F5803F70
:1019E0005BD0B3F5A02F5ED0994B1A6822F48032F9
:1019F0001A601A6822F480221A606368002B5CD097
:101A0000FFF738F80546924B1B6813F4003F14D1DA
:101A1000FFF730F8401B6428F5D903209DE18C4B7B
:101A20005B6813F4800FD2D0894B1B6813F4003F1E
:101A300003D06368002B00F08D81236813F0020F40
:101A400067D0834B9B6813F00C0F4AD0804B9B6888
:101A500003F00C03082B3FD07D4B9B6803F00C0375
:101A60000C2B48D0E368002B74D07A4B01221A600B
:101A7000FFF700F80546764B1B6813F0020F60D1A4
:101A8000FEF7F8FF401B0228F5D9032065E1704BF3
:101A90005B6813F4800FA0D0C6E76D4A136843F467
:101AA00080331360A9E76A4B1A6842F480221A60F7
:101AB0001A6842F480321A609FE7FEF7DBFF0546A2
:101AC000634B1B6813F4003FB7D0FEF7D3FF401BF6
:101AD0006428F5D9032040E15D4B5B6813F4800F67
:101AE000BAD15B4B1B6813F0020F0AD0E368012BDD
:101AF00007D0012031E1564B5B6813F4800FB1D160
:101B0000EFE7534A136823F0F803216943EAC1035E
:101B10001360236813F0080F40D0636963B34E4B22
:101B200001221A60FEF7A6FF0546494B5B6F13F0D2
:101B3000020F33D1FEF79EFF401B0228F5D9032088
:101B40000BE1434A136823F0F803216943EAC10318
:101B50001360DEE73F4B00221A60FEF78BFF05465D
:101B60003B4B1B6813F0020FD3D0FEF783FF401BE3
:101B70000228F5D90320F0E0374B00221A60FEF767
:101B800079FF0546324B5B6F13F0020F06D0FEF76C
:101B900071FF401B0228F5D90320DEE0236813F013
:101BA000040F79D02A4B1B6C13F0805F33D10023D4
:101BB0000193274B1A6C42F080521A641B6C03F09D
:101BC00080530193019B0125244B1B6813F4807FF4
:101BD00023D0A368012B34D0052B41D01C4B1A6FA6
:101BE00022F001021A671A6F22F004021A67A36832
:101BF000002B3FD0FEF73EFF0646154B1B6F13F040
:101C0000020F48D1FEF736FF801B41F2883398421D
:101C1000F3D90320A1E00025D6E7104A136843F466
:101C200080731360FEF726FF06460C4B1B6813F407
:101C3000807FCED1FEF71EFF801B0228F5D903203E
:101C40008BE0034A136F43F001031367CFE700BF34
:101C50000038024000004742800E474200700040BA
:101C6000404B1A6F42F004021A671A6F42F00102E9
:101C70001A67BCE7FEF7FEFE06463A4B1B6F13F0F1
:101C8000020F08D0FEF7F6FE801B41F2883398421F
:101C9000F3D9032061E0E5B9A369002B5CD0314A98
:101CA000926802F00C02082A59D0022B17D02E4B52
:101CB00000221A60FEF7DEFE04462A4B1B6813F072
:101CC000007F45D0FEF7D6FE001B0228F5D9032081
:101CD00043E0244A136C23F080531364DCE7224B67
:101CE00000221A60FEF7C6FE05461E4B1B6813F065
:101CF000007F06D0FEF7BEFE401B0228F5D9032068
:101D00002BE0E369226A1343626A43EA8213A26A00
:101D10005208013A43EA0243E26A43EA0263226B51
:101D200043EA02730F4A53600F4B01221A60FEF719
:101D3000A1FE04460B4B1B6813F0007F06D1FEF793
:101D400099FE001B0228F5D9032006E0002004E0DC
:101D5000002002E0012000E0002002B070BD012060
:101D6000FBE700BF00380240600047427047704701
:101D700070477047704710B5044603681A6912F03F
:101D8000020F11D0DA6812F0020F0DD06FF00202CC
:101D90001A610123037603689B6913F0030F70D067
:101DA000FFF7E6FF0023237623681A6912F0040F79
:101DB00012D0DA6812F0040F0ED06FF004021A612C
:101DC0000223237623689B6913F4407F5FD020466B
:101DD000FFF7CEFF0023237623681A6912F0080F5D
:101DE00012D0DA6812F0080F0ED06FF008021A61F4
:101DF000042323762368DB6913F0030F4ED02046BB
:101E0000FFF7B6FF0023237623681A6912F0100F3C
:101E100012D0DA6812F0100F0ED06FF010021A61B3
:101E2000082323762368DB6913F4407F3DD02046E6
:101E3000FFF79EFF0023237623681A6912F0010F33
:101E400003D0DA6812F0010F36D123681A6912F054
:101E5000800F03D0DA6812F0800F34D123681A693A
:101E600012F0400F03D0DA6812F0400F32D123682D
:101E70001A6912F0200F03D0DA6812F0200F30D167
:101E800010BDFFF774FF2046FFF773FF8AE7204677
:101E9000FFF76DFF2046FFF76CFF9BE72046FFF73B
:101EA00066FF2046FFF765FFACE72046FFF75FFFC0
:101EB0002046FFF75EFFBDE76FF001021A61204682
:101EC000FFF754FFC1E76FF080021A61204600F06F
:101ED000B2F8C3E76FF040021A612046FFF74AFFED
:101EE000C5E76FF020021A61204600F0A3F8C7E7AB
:101EF00003682E4A904212D0B0F1804F0FD0A2F565
:101F00007C4290420BD002F58062904207D002F5ED
:101F10008062904203D002F57842904203D123F0D0
:101F200070034A681343214A90422AD0B0F1804F8F
:101F300027D0A2F57C42904223D002F580629042E5
:101F40001FD002F5806290421BD002F57842904289
:101F500017D002F57052904213D002F58062904281
:101F60000FD002F5806290420BD0A2F598329042D9
:101F700007D002F58062904203D002F58062904261
:101F800003D123F44073CA68134303608B68C362B0
:101F90000B688362054B984203D003F58063984237
:101FA00001D10B69036301234361704700000140C5
:101FB000A8B110B5044690F839305BB1022384F81B
:101FC0003930211D2068FFF793FF012384F8393051
:101FD000002010BD80F8383000F080FEEEE70120D0
:101FE000704790F83830012B22D030B4012280F8AD
:101FF0003820022380F839300468636823F07003C6
:102000006360046863680D682B4363600468A368B9
:1020100023F08003A3600468A36849680B43A360AE
:1020200080F83920002380F83830184630BC7047DB
:1020300002207047704770472DE9F8430446016855
:102040000A6922F44052C36813430B610168CA68ED
:1020500022F4164222F00C0283680069034360698F
:102060000343E06903431343CB6021684A6922F4C8
:102070004072A36913434B61E369B3F5004F60D02D
:102080002368B84A934200F0148102F580629342BB
:1020900000F00F81FFF7D6FB00EB800000EB800023
:1020A0006568AD00B0FBF5F5AF4FA7FB05356D09D1
:1020B0002E01FFF7C7FB00EB800000EB8000656896
:1020C000AD00B0FBF5F9FFF7BDFB00EB800000EBC6
:1020D00080006568AD00B0FBF5F5A7FB05356D091F
:1020E0004FF0640808FB15952D013235A7FB053527
:1020F0006D0905F0F0053544FFF7A4FB00EB800007
:1021000000EB80006668B600B0FBF6F6FFF79AFBBE
:1021100000EB800000EB800063689B00B0FBF3F0F5
:10212000A7FB0030400908FB10684FEA081808F1C7
:102130003208A7FB0837C7F3431723682F449F6073
:102140000DE12368874A93425BD002F58062934297
:1021500057D0FFF777FB00EB800000EB800065684D
:102160006D00B0FBF5F5804FA7FB05356D092E011D
:10217000FFF768FB00EB800000EB800065686D00F6
:10218000B0FBF5F9FFF75EFB00EB800000EB800091
:1021900065686D00B0FBF5F5A7FB05356D094FF0DF
:1021A000640808FB1595ED003235A7FB05356D0970
:1021B0006D0005F4F8753544FFF744FB00EB800033
:1021C00000EB800066687600B0FBF6F6FFF73AFB9E
:1021D00000EB800000EB800063685B00B0FBF3F372
:1021E000A7FB03235B0908FB13684FEAC80808F143
:1021F0003208A7FB0837C7F3421723682F449F60B4
:10220000ADE0FFF72FFB00EB800000EB800065687E
:102210006D00B0FBF5F5544FA7FB05356D092E0198
:10222000FFF720FB00EB800000EB800065686D008D
:10223000B0FBF5F9FFF716FB00EB800000EB800028
:1022400065686D00B0FBF5F5A7FB05356D094FF02E
:10225000640808FB1595ED003235A7FB05356D09BF
:102260006D0005F4F8753544FFF7FCFA00EB8000CB
:1022700000EB800066687600B0FBF6F6FFF7F2FA36
:1022800000EB800000EB800063685B00B0FBF3F3C1
:10229000A7FB03235B0908FB13684FEAC80808F192
:1022A0003208A7FB0837C7F3421723682F449F6003
:1022B00055E0FFF7D7FA00EB800000EB800065687F
:1022C000AD00B0FBF5F5284FA7FB05356D092E01D4
:1022D000FFF7C8FA00EB800000EB80006568AD00F6
:1022E000B0FBF5F9FFF7BEFA00EB800000EB8000D1
:1022F0006568AD00B0FBF5F5A7FB05356D094FF03E
:10230000640808FB15952D013235A7FB05356D09CD
:1023100005F0F0053544FFF7A5FA00EB800000EB6F
:1023200080006668B600B0FBF6F6FFF79BFA00EB9C
:10233000800000EB800063689B00B0FBF3F0A7FB1C
:102340000030400908FB10684FEA081808F132080D
:10235000A7FB0837C7F3431723682F449F60BDE8E6
:10236000F88300BF001001401F85EB512DE9F041BB
:1023700005460F4616469846069C2B681B6837EAAA
:1023800003030CBF01230023B3421DD1B4F1FF3F6F
:10239000F3D02CB1FEF76EFBA0EB0800A042ECD905
:1023A0002A68D36823F4D073D3602A68536923F072
:1023B00001035361202385F8393085F83A30002332
:1023C00085F83830032000E00020BDE8F08158B3E4
:1023D00010B5044690F839300BB3242384F8393013
:1023E0002268D36823F40053D3602046FFF724FE0D
:1023F0002268136923F4904313612268536923F020
:102400002A0353612268D36843F40053D360002049
:10241000E063202384F8393084F83A3010BD80F826
:10242000383000F073FCD8E7012070472DE9F04107
:1024300082B01E4690F83930DBB2202B55D10446CD
:102440000D469046002955D0002A55D090F83830D6
:10245000012B53D0012380F838300023C36321239C
:1024600080F83930FEF706FB0746A4F82480A4F86C
:10247000268010E000963B46002280212046FFF790
:1024800075FF00283CD12B882268C3F308035360F2
:102490002369C3B90235E38C9BB2B3B1E38C013B32
:1024A0009BB2E384A368B3F5805FE3D000963B461C
:1024B000002280212046FFF759FF18BB2A782368A5
:1024C0005A600135E7E70135E5E700963B46002213
:1024D00040212046FFF74AFF0346A8B9202284F88E
:1024E0003920002284F8382000E00223184602B088
:1024F000BDE8F0810123F9E70123F7E70223F5E7BF
:102500000323F3E70323F1E70323EFE782B000217E
:1025100000910B4B1A6B42F001021A631A6B02F026
:1025200001020092009A01911A6B42F002021A63B2
:102530001B6B03F002030193019B02B0704700BFC5
:102540000038024008B5002211463620FEF7BEFAD8
:102550003620FEF7EFFA08BD38B50546FEF7E4F978
:10256000064C052382B229462046FFF75FFF02236F
:102570001A4603492046FFF759FF38BDFC010020E9
:102580000C37000870B584B08DF80C10130A8DF864
:102590000D308DF80E200546084C64260096032366
:1025A00003AA01462046FEF765FE0096032303AA10
:1025B00029462046FEF75EFE04B070BD00010020F3
:1025C000F0B585B0174604AA02F8011D0546084C6F
:1025D00064260096012301462046FEF74BFE009636
:1025E00002233A4629462046FEF706FF05B0F0BD15
:1025F0000001002070B53A4D2A463B21D120FFF75B
:10260000DFFF2B784FF47A7606FB03F3354C07EEA9
:10261000903AF8EEE77AC4ED007A2A463C21D120C0
:10262000FFF7CEFF2B7807EE903AF8EEE77A94EDBD
:10263000007A77EE877AC4ED007A2A463D21D120D0
:10264000FFF7BEFF2B7806FB03F307EE903AF8EE98
:10265000E77AC4ED017A2A463E21D120FFF7B0FF88
:102660002B7807EE903AF8EEE77A94ED017A77EE60
:10267000877AC4ED017A2A463F21D120FFF7A0FFD7
:102680002B7806FB03F607EE906AF8EEE77AC4EDC6
:10269000027A2A464021D120FFF792FF2B7807EEDD
:1026A000903AF8EEE77A94ED027A77EE877A94ED35
:1026B000007A0D4BD3ED006A37EE667A84ED007A2E
:1026C00094ED017AD3ED016A37EE667A84ED017AF2
:1026D00093ED027A77EEC77AC4ED027A70BD00BF3F
:1026E0006401002054010020F0010020F0B585B005
:1026F0000023019302930393002774E0464C224683
:102700003B21D120FFF75CFF23784FF47A7606FB5C
:1027100003F3424D07EE903AF8EEE77AC5ED007A02
:1027200022463C21D120FFF74BFF237807EE903A59
:10273000F8EEE77A95ED007A77EE877AC5ED007AC4
:1027400022463D21D120FFF73BFF237806FB03F310
:1027500007EE903AF8EEE77AC5ED017A22463E217F
:10276000D120FFF72DFF237807EE903AF8EEE77AB5
:1027700095ED017A77EE877AC5ED017A22463F2101
:10278000D120FFF71DFF237806FB03F607EE906AC2
:10279000F8EEE77AC5ED027A22464021D120FFF714
:1027A0000FFF237807EE903AF8EEE77A95ED027A7C
:1027B00077EE877AC5ED027AD5ED006A9DED017A54
:1027C00037EE267A8DED017AD5ED016A9DED027A1C
:1027D00037EE267A8DED027A9DED037A77EE277A31
:1027E000CDED037A0137092F88DDDFED0D7A9DED00
:1027F000017A87EE276A9DED027AC7EE276ADDED42
:10280000035A85EEA77A074B83ED006AC3ED016A90
:1028100083ED027A05B0F0BD640100205401002070
:102820000000C842F001002070B52F4C2246432121
:10283000D120FFF7C5FE23784FF47A7606FB03F329
:102840002A4D07EE903AF8EEE77AC5ED007A224677
:102850004421D120FFF7B4FE237807EE903AF8EE3A
:10286000E77A95ED007A77EE877AC5ED007A224611
:102870004521D120FFF7A4FE237806FB03F307EEE2
:10288000903AF8EEE77AC5ED017A22464621D1204A
:10289000FFF796FE237807EE903AF8EEE77A95ED8B
:1028A000017A77EE877AC5ED017A22464721D12059
:1028B000FFF786FE237806FB03F607EE906AF8EE34
:1028C000E77AC5ED027A22464821D120FFF778FE4B
:1028D000237807EE903AF8EEE77A95ED027A77EEF4
:1028E000877AC5ED027A70BD64010020680100207E
:1028F00038B51B4C22464121D120FFF761FE2278DA
:102900004FF47A7303FB02F3164D07EE903AF8EE9C
:10291000E77AC5ED007A22464221D120FFF750FE2A
:10292000237807EE903AF8EEE77A95ED007A77EEA5
:10293000877A9FED0D7AC7EE877A17EE900AFDF73A
:10294000CBFD05A3D3E90023FDF768FCFDF71CFED2
:10295000286038BDAFF30080A4703D0AD7434240E1
:1029600064010020600100200000AA4308B5002295
:102970006B21D020FFF706FE6420FEF781F81022BD
:102980001B21D020FFF7FEFD6420FEF779F800221E
:102990001C21D020FFF7F6FD6420FEF771F808BD7A
:1029A000FEE7000008B50B480B4B03600B4B436080
:1029B0004FF4804282600023C360026143618361FF
:1029C000C3610362FEF7C8FB00B908BDF5210448E6
:1029D000FFF7E6FF0001002000540040801A0600C7
:1029E0001037000808B50B480B4B03604FF4E13378
:1029F000436000238360C36003610C2242618361F2
:102A0000C361FFF7E4FC00B908BD40F2331103488D
:102A1000FFF7C6FFFC01002000440040103700080B
:102A200008B50B480B4B03604FF4E13343600023C0
:102A30008360C36003610C2242618361C361FFF75D
:102A4000C6FC00B908BD4FF490710348FFF7A8FF1A
:102A500074010020001001401037000800B583B059
:102A60001048114B036010234360002383604FF62E
:102A7000FF73C360FFF79CFA50B9002300930193E2
:102A800069460848FFF7ADFA38B903B05DF804FBB2
:102A90004FF483710548FFF783FF40F20D1103489F
:102AA000FFF77EFFB401002000100040103700083F
:102AB00000B595B000220092244B196C41F0805172
:102AC00019641B6C03F080530093009B0192204912
:102AD0000B6823F4404343F480430B600B6803F41A
:102AE00040430193019B0223079301230A93102380
:102AF0000B930D9207A8FEF757FFF0B90F2302932F
:102B00000021039104910591069102A8FEF7E8FDCA
:102B1000B8B9FEF791FE0F4BA3FB00308009FEF71A
:102B200015F80420FEF728F8002211464FF0FF3078
:102B3000FDF7CCFF15B05DF804FBBE210648FFF79A
:102B40002FFFCC210448FFF72BFF00BF00380240C5
:102B500000700040D34D62101037000800B583B0FC
:102B6000FDF762FFFFF7A4FFFFF7D0FCFFF71AFFA6
:102B7000FFF738FFFFF754FFFFF770FFFFF7E2FCA6
:102B80001648FEF7E9FAFFF7F1FE154B00221A602E
:102B90005A609A60FFF7AAFDFFF72CFDFFF744FE8D
:102BA000FFF7A6FE0F4B93ED007AD3ED016AD3ED4C
:102BB000027A0D4CFDEEE77ACDED007AFDEEE67A75
:102BC00017EE903AFDEEC77A17EE902A0749204695
:102BD00000F072F92046FFF7BFFCDDE7000100209E
:102BE000F0010020540100209C0000202037000844
:102BF00010B582B000240094214B5A6C42F48042FC
:102C00005A645A6C02F480420092009A01941A6C41
:102C100042F080521A641B6C03F080530193019BB5
:102C20000320FDF741FF224621466FF00B00FDF720
:102C30004DFF224621466FF00A00FDF747FF22466E
:102C400021466FF00900FDF741FF224621466FF053
:102C50000400FDF73BFF224621466FF00300FDF71D
:102C600035FF224621466FF00100FDF72FFF224677
:102C700021464FF0FF30FDF729FF02B010BD00BF25
:102C8000003802400268124B9A4200D0704700B5EB
:102C900087B0C023019312230293012303930323DC
:102CA0000493042305930DEB03010A48FDF77AFF13
:102CB00000230093084B1A6C42F400121A641B6C38
:102CC00003F400130093009B07B05DF804FB00BF02
:102CD0000054004000040240003802400268094BE2
:102CE0009A4200D0704782B000230193064B1A6CC1
:102CF00042F010021A641B6C03F010030193019B55
:102D000002B07047001000400038024000B589B0A2
:102D10000368204A934205D01F4A93421ED009B04F
:102D20005DF804FB002301931C4B5A6C42F0100227
:102D30005A645B6C03F010030193019B4FF4C06372
:102D4000039302230493012305930323069307238C
:102D5000079303A91248FDF725FFE0E7002302933C
:102D60000E4B1A6C42F400321A641B6C03F40033ED
:102D70000293029B0C2303930223049301230593E4
:102D8000032306930723079303A90548FDF70AFFCA
:102D9000C5E700BF00100140004400400038024079
:102DA000000002407047FEE7FEE7FEE7FEE77047DF
:102DB0007047704708B5FDF751FEFDF7EEFE08BD00
:102DC00008B50248FEF7D7FF08BD00BFB4010020D8
:102DD0000F49D1F8883043F47003C1F888300D4BA7
:102DE0001A6842F001021A60002098601A6822F006
:102DF000847222F480321A60074A5A601A6822F4F8
:102E000080221A60D8604FF000638B60704700BF6B
:102E100000ED00E00038024010300024DFF834D02C
:102E2000002103E00C4B5B58435004310B480C4B22
:102E300042189A42F6D30B4A02E0002342F8043BC0
:102E4000094B9A42F9D3FFF7C3FF00F011F8FFF7DF
:102E500085FE704700000220743700080000002043
:102E6000700000207000002040020020FEE70000FB
:102E700070B50D4E0D4CA41BA4100025A54209D120
:102E80000B4E0C4C00F02AFCA41BA4100025A542FC
:102E900005D170BD56F8253098470135EEE756F854
:102EA000253098470135F2E76C3700086C37000889
:102EB0006C370008703700080EB400B59CB01DAB2D
:102EC000029006906FF0004109480791049109496A
:102ED00053F8042B05910068019302A900F066F8ED
:102EE000029B00221A701CB05DF804EB03B070471F
:102EF0000C0000200802FFFF2DE9F0478E689E427B
:102F000082460C469046994637D88A8912F4906FCB
:102F100031D0256809696F1A6569022305EB4505FB
:102F200095FBF3F509F101033B449D4238BF1D4673
:102F3000530530D5294600F029FB064650B90C232D
:102F4000CAF80030A38943F04003A3814FF0FF305B
:102F5000BDE8F0873A46216900F0A6FAA38923F478
:102F6000906343F08003A381266165613E44ED1BBD
:102F70002660A5604E464E4500D94E463246414633
:102F8000206800F09CFAA3689B1BA36023681E4482
:102F900026600020DCE72A4600F052FB06460028A7
:102FA000E2D12169504600F0A3FAC8E72DE9F04FBD
:102FB0009DB0804603938B891D060C4616460FD59F
:102FC0000B696BB9402100F0E1FA2060206128B95B
:102FD0000C23C8F800304FF0FF30C7E04023636196
:102FE0000023099320238DF8293030238DF82A30CF
:102FF0004FF0010B37463D4615F8013B0BB1252B31
:103000003ED1B7EB060A0BD0534632462146404626
:10301000FFF772FF013000F0A480099B534409932D
:103020003B78002B00F09D8000234FF0FF32CDE96C
:103030000523049307938DF853301A932F460522E6
:1030400017F8011B4F48FDF77BFC049BD0B9D9064C
:1030500044BF20228DF853201A0744BF2B228DF83D
:1030600053202A782A2A15D0079A2F4600200A25AD
:10307000394611F8013B303B092B4DD9B8B10FE06F
:103080002F46B8E73F4A801A0BFA00F01843049025
:103090003D46D3E7039A111D12680391002A01DB14
:1030A000079204E0524243F00203079204933B78F4
:1030B0002E2B0CD17B782A2B33D1039B1A1D1B6836
:1030C0000392002BB8BF4FF0FF33023705932E4D0C
:1030D000397803222846FDF733FC38B14023401BE2
:1030E00003FA00F0049B034301370493397827481F
:1030F0008DF8281006227E1CFDF722FC002838D00F
:10310000234B13BB039B073323F0070308330393BD
:10311000099B4B4409936DE705FB023201200F46E2
:10312000A6E700230137059319460A25384610F80B
:10313000012B303A092A03D9002BC8D00591C6E7E4
:1031400005FB012101230746F0E703AB009322466C
:10315000104B04A94046AFF30080B0F1FF3F814619
:10316000D6D1A3895B063FF536AF09981DB0BDE8FF
:10317000F08F03AB00932246064B04A9404600F0B3
:1031800081F8EAE730370008363700083A37000898
:1031900000000000F92E00082DE9F04791461F4677
:1031A0008A680B69DDF820809342B8BF1346C9F8DE
:1031B000003091F8432006460C4612B10133C9F89D
:1031C00000302368990642BFD9F800300233C9F8AD
:1031D0000030256815F0060507D104F1190AE368E7
:1031E000D9F800209B1AAB4228DC94F843302268BF
:1031F000003318BF012392062DD404F1430239464F
:103200003046C047013020D02368E568D9F8002057
:1032100003F00603042B08BFAD1AA36822690CBF94
:1032200025EAE57500259342C4BF9B1AED184FF0BF
:1032300000091A344D451AD1002008E001235246F6
:1032400039463046C047013003D14FF0FF30BDE86A
:10325000F0870135C3E7E1185A1C302081F843009C
:10326000224494F8451082F843100233C5E7012345
:10327000224639463046C0470130E6D009F10109FF
:10328000D8E700002DE9F04301F1430C0C46097E1C
:1032900085B06E291746064698460C9A00F0B38012
:1032A00022D8632936D00AD8002900F0B9805829DD
:1032B00000F0838004F1420584F8421032E0642972
:1032C00001D06929F6D120681368050603F10401CD
:1032D0002AD51B681160002B03DA2D225B4284F88B
:1032E00043206F480A2239E0732900F09D8008D8F6
:1032F0006F2920D07029DDD1236843F0200323609B
:1033000003E0752917D07829D4D1782384F8453083
:10331000644855E01368191D1B68116004F14205EB
:1033200084F8423001238CE01B68116010F0400FDC
:1033300018BF1BB2CFE713682568181D1060280658
:1033400001D51B6802E06806FBD51B8854486F292D
:1033500014BF0A220822002184F843106568A56082
:10336000002DC0F29580216821F004012160002B1E
:103370003DD1002D40F08E806546082A0BD1236890
:10338000DB0708D5236962689A42DEBF302305F85F
:10339000013C05F1FF35ACEB05032361CDF800805E
:1033A0003B4603AA21463046FFF7F6FE01304DD1D9
:1033B0004FF0FF3005B0BDE8F083394884F8451080
:1033C000136821681D1D1B6815600A060BD5CA0706
:1033D00044BF41F0200121601BB9226822F0200285
:1033E00022601022B7E74D0648BF9BB2EFE7654663
:1033F000B3FBF2F102FB1133C35C05F8013D0B4650
:103400000029F5D1B9E7136825686169181D1060B6
:1034100028061B6801D5196002E06A06FBD51980F1
:10342000002323616546B9E71368191D11601D6803
:10343000626800212846FDF783FA08B1401B6060EE
:1034400063682361002384F84330A7E723692A4691
:1034500039463046C0470130AAD023689B0713D4B1
:10346000E068039B9842B8BF1846A3E701234A4689
:1034700039463046C04701309AD00135E368039A97
:103480009B1AAB42F2DCEBE7002504F11909F5E7E2
:10349000002BACD1037884F8423004F142056CE78C
:1034A000413700085237000810B5431E0A449142C4
:1034B00000D110BD11F8014B03F8014FF7E7884226
:1034C00010B501EB020307D8421E99420AD011F849
:1034D000014B02F8014FF8E78342F5D98118D21A5F
:1034E000D34200D110BD13F8014D01F8014DF7E7AB
:1034F00038B50546002945D051F8043C0C1F002B77
:10350000B8BFE41800F0D2F81F4A1368104633B968
:10351000636014602846BDE8384000F0C8B8A34294
:103520000CD921686218934204BF1A685B68636013
:1035300004BF521822600460ECE713465A680AB1CF
:10354000A242FAD919685818A0420BD12068014448
:10355000581882421960DDD1106852685A600144DF
:103560001960D7E702D90C232B60D3E72068211814
:103570008A4204BF11685268626004BF0918216062
:103580005C60C7E738BD00BF8C00002070B5CD1C63
:1035900025F0030508350C2D38BF0C25002D0646F7
:1035A00001DBA94203D90C233360002070BD00F079
:1035B0007DF8214A1468214691B9204C23681BB933
:1035C000304600F063F820602946304600F05EF88F
:1035D000431C24D10C233360304600F068F8E4E744
:1035E0000B685B1B18D40B2B0FD90B60CD50CC187C
:1035F000304600F05CF804F10B00231D20F00700BA
:10360000C31AD3D05A42E250D0E78C424B6816BF5F
:10361000636013600C46EBE70C464968CCE7C41CBA
:1036200024F00304A04205D0211A304600F02EF801
:103630000130CFD02560DBE78C0000209000002017
:10364000F8B5074614460E4621B91146BDE8F840C4
:10365000FFF79CBF22B9FFF74BFF25462846F8BD70
:1036600000F026F8A0420FD221463846FFF78EFF21
:1036700005460028F2D031462246FFF715FF3146B5
:103680003846FFF735FFE9E73546E7E738B5064C3A
:10369000002305460846236000F012F8431C02D1BF
:1036A000236803B12B6038BD3C020020704770478F
:1036B00051F8043C181F002BBCBF0B58C0187047B2
:1036C000044A05491368002B08BF0B4618441060D4
:1036D000184670479400002040020020F8B500BF53
:1036E000F8BC08BC9E467047F8B500BFF8BC08BCE3
:0436F0009E4670473B
:1036F400000000000000000001020304060708099E
:1037040000000000010203040D0A00002E2E2F53B6
:1037140072632F6D61696E2E6300000025642009B9
:10372400202564200920256400000000232D302B6F
:103734002000686C4C0065666745464700303132AE
:103744003334353637383941424344454600303105
:103754003233343536373839616263646566000064
:08376400F4CEFF7F010000001C
:04376C00F50100085B
:04377000D10100087B
:1037740001000000100000000024F40010000020EC
:103784000000000000000000000000000000000035
:103794000000000000000000000000000000000025
:1037A4000000000000000000000000000000000015
:1037B4000000000000000000000000000000000005
:1037C40000000000000000000000000000000000F5
:1037D40000000000000000000000000000000000E5
:0400000508002E1DA4
:00000001FF
