:020000040800F2
:1000000000000220CD2E0008552E0008572E0008B3
:10001000592E00085B2E00085D2E0008000000002D
:100020000000000000000000000000005F2E00083B
:10003000612E000800000000632E0008652E0008F5
:100040001D2F00081D2F00081D2F00081D2F000860
:100050001D2F00081D2F00081D2F00081D2F000850
:100060001D2F00081D2F00081D2F00081D2F000840
:100070001D2F00081D2F00081D2F00081D2F000830
:100080001D2F00081D2F00081D2F00081D2F000820
:100090001D2F00081D2F00081D2F00081D2F000810
:1000A0001D2F00081D2F00081D2F00081D2F000800
:1000B0001D2F00081D2F00081D2F00081D2F0008F0
:1000C0001D2F00081D2F00081D2F00081D2F0008E0
:1000D0001D2F00081D2F00081D2F00081D2F0008D0
:1000E0001D2F00081D2F00081D2F00081D2F0008C0
:1000F0001D2F00081D2F00081D2F00081D2F0008B0
:100100001D2F00081D2F00081D2F00081D2F00089F
:100110001D2F00081D2F0008712E00081D2F00083C
:100120001D2F00081D2F00081D2F00081D2F00087F
:100130001D2F000800000000000000001D2F000817
:100140001D2F00081D2F00081D2F00081D2F00085F
:100150001D2F00081D2F00081D2F00081D2F00084F
:100160001D2F00081D2F00081D2F00081D2F00083F
:100170001D2F00081D2F00081D2F00080000000083
:10018000000000001D2F000800000000000000001B
:100190001D2F000800000000000000001D2F0008B7
:1001A0000000000000000000000000001D2F0008FB
:1001B0001D2F00081D2F00081D2F00081D2F0008EF
:0401C0001D2F0008E7
:1001D00010B5054C237833B9044B13B10448AFF381
:1001E00000800123237010BD70000020000000007B
:1001F000C03700080C4B43B10C480D4910B5AFF3A4
:1002000000800C48036823B910BD0A48036833B95D
:100210007047094B002BF7D0BDE810401847064B3C
:10022000002BF5D0184700BF00000000C0370008C1
:1002300074000020700000200000000081F00041E8
:1002400002E000BF83F0004330B54FEA41044FEABB
:10025000430594EA050F08BF90EA020F1FBF54EA56
:10026000000C55EA020C7FEA645C7FEA655C00F0F2
:10027000E2804FEA5454D4EB5555B8BF6D420CDDC3
:100280002C4480EA020281EA030382EA000083EA46
:10029000010180EA020281EA0303362D88BF30BDE6
:1002A00011F0004F4FEA01314FF4801C4CEA11313C
:1002B00002D0404261EB410113F0004F4FEA03339B
:1002C0004CEA133302D0524263EB430394EA050F26
:1002D00000F0A780A4F10104D5F1200E0DDB02FA95
:1002E0000EFC22FA05F2801841F1000103FA0EF229
:1002F000801843FA05F359410EE0A5F120050EF1EF
:10030000200E012A03FA0EFC28BF4CF0020C43FA1F
:1003100005F3C01851EBE37101F0004507D54FF02C
:10032000000EDCF1000C7EEB00006EEB0101B1F57C
:10033000801F1BD3B1F5001F0CD349085FEA3000C2
:100340004FEA3C0C04F101044FEA445212F5800FCD
:1003500080F09A80BCF1004F08BF5FEA500C50F16A
:10036000000041EB045141EA050130BD5FEA4C0C4D
:10037000404141EB010111F4801FA4F10104E9D1D6
:1003800091F0000F04BF01460020B1FA81F308BFCD
:100390002033A3F10B03B3F120020CDA0C3208DD99
:1003A00002F1140CC2F10C0201FA0CF021FA02F174
:1003B0000CE002F11402D8BFC2F1200C01FA02F1E4
:1003C00020FA0CFCDCBF41EA0C019040E41AA2BF09
:1003D00001EB0451294330BD6FEA04041F3C1CDAD1
:1003E0000C340EDC04F11404C4F1200220FA04F0F1
:1003F00001FA02F340EA030021FA04F345EA03019B
:1004000030BDC4F10C04C4F1200220FA02F001FA5C
:1004100004F340EA0300294630BD21FA04F02946DE
:1004200030BD94F0000F83F4801306BF81F4801177
:100430000134013D4EE77FEA645C18BF7FEA655CEA
:1004400029D094EA050F08BF90EA020F05D054EABC
:10045000000C04BF1946104630BD91EA030F1EBFC1
:100460000021002030BD5FEA545C05D140004941C5
:1004700028BF41F0004130BD14F580043CBF01F5B8
:10048000801130BD01F0004545F0FE4141F470019E
:100490004FF0000030BD7FEA645C1ABF1946104679
:1004A0007FEA655C1CBF0B46024650EA013406BF7A
:1004B00052EA033591EA030F41F4002130BD00BF39
:1004C00090F0000F04BF0021704730B54FF48064F6
:1004D00004F132044FF000054FF0000150E700BF77
:1004E00090F0000F04BF0021704730B54FF48064D6
:1004F00004F1320410F0004548BF40424FF00001C3
:100500003EE700BF42004FEAE2014FEA31014FEA05
:1005100002701FBF12F07F4393F07F4F81F0605154
:10052000704792F0000F14BF93F07F4F704730B5C3
:100530004FF4607401F0004521F0004120E700BF56
:1005400050EA010208BF704730B54FF000050AE0DD
:1005500050EA010208BF704730B511F0004502D5DE
:10056000404261EB41014FF4806404F132045FEAE0
:10057000915C3FF4DCAE4FF003025FEADC0C18BF85
:1005800003325FEADC0C18BF033202EBDC02C2F17B
:10059000200300FA03FC20FA02F001FA03FE40EA0D
:1005A0000E0021FA02F11444C1E600BF4FEA4102F5
:1005B000B2F1E04324BFB3F5001CDCF1FE5C0DD9C1
:1005C00001F0004C4FEAC0024CEA5070B2F1004F0B
:1005D00040EB830008BF20F00100704711F0804F0E
:1005E00021D113F13872BCBF01F00040704741F4D3
:1005F00080114FEA5252C2F11802C2F1200C10FAD7
:100600000CF320FA02F018BF40F001004FEAC123BA
:100610004FEAD32303FA0CFC40EA0C0023FA02F35E
:100620004FEA4303CCE77FEA625307D150EA013334
:100630001EBF4FF0FE4040F44000704701F0004004
:1006400040F0FE4040F40000704700BF53B94AB983
:10065000002908BF00281CBF4FF0FF314FF0FF30CA
:1006600000F07AB9ADF1080C6DE904CE00F006F89F
:10067000DDF804E0DDE9022304B070472DE9F0471E
:100680008C460D460446089E002B51D18A421746DF
:100690006DD9B2FA82FEBEF1000F0BD0CEF1200C64
:1006A00001FA0EF520FA0CFC02FA0EF74CEA050CE2
:1006B00000FA0EF44FEA174A250CBCFBFAF81FFAB1
:1006C00087F90AFB18CC45EA0C4508FB09F3AB4255
:1006D0000AD9ED1908F1FF3280F02381AB4240F2D4
:1006E0002081A8F102083D44ED1AA4B2B5FBFAF04E
:1006F0000AFB105544EA054400FB09F9A14509D954
:10070000E41900F1FF3380F00A81A14540F207812E
:1007100002383C44A4EB090440EA08400021002EC2
:1007200061D024FA0EF4002334607360BDE8F087D2
:100730008B4207D9002E54D0002186E821000846BC
:10074000BDE8F087B3FA83F1002940F08E80AB4218
:1007500002D3824200F2FA80841A65EB030501207D
:10076000AC46002E3FD086E81010BDE8F08712B9E5
:100770000127B7FBF2F7B7FA87FEBEF1000F34D1BD
:10078000EB1B3A0C1FFA87FC0121B3FBF2F8250C96
:1007900002FB183345EA03450CFB08F3AB4207D9CB
:1007A000ED1908F1FF3002D2AB4200F2D180804651
:1007B000ED1AA3B2B5FBF2F002FB105543EA054473
:1007C0000CFB00FCA44507D9E41900F1FF3302D269
:1007D000A44500F2B8801846A4EB0C0440EA084097
:1007E0009DE731463046BDE8F087CEF1200405FA9A
:1007F0000EF307FA0EF720FA04F83A0C25FA04F47F
:1008000048EA0308B4FBF2F14FEA184502FB114431
:100810001FFA87FC45EA044501FB0CF3AB4200FAE2
:100820000EF409D9ED1901F1FF3080F08A80AB4256
:1008300040F2878002393D44EB1A1FFA88F5B3FB7A
:10084000F2F002FB103345EA034500FB0CF3AB4228
:1008500007D9ED1900F1FF386FD2AB426DD90238DC
:100860003D44EB1A40EA01418FE7C1F1200722FA2B
:1008700007F88B4005FA01F448EA030320FA07FE63
:100880004FEA134CFD404EEA040EB5FBFCF94FEA6B
:100890001E440CFB19551FFA83F844EA054509FB71
:1008A00008F4AC4202FA01F200FA01FA08D9ED1894
:1008B00009F1FF3043D2AC4241D9A9F102091D44EC
:1008C0002D1B1FFA8EFEB5FBFCF00CFB10554EEAFB
:1008D000054400FB08F8A04507D9E41800F1FF35EE
:1008E00029D2A04527D902381C4440EA0940A4EB8C
:1008F0000804A0FB02894C45C6464D4615D312D0CC
:1009000056B1BAEB0E0364EB050404FA07F7CB40CB
:100910001F43CC40376074600021BDE8F087184663
:10092000F8E69046E0E6C245EAD2B8EB020E69EB83
:1009300003050138E4E72846D7E7404691E78146BA
:10094000BEE7014678E702383C4445E7084608E739
:10095000A8F102083D442BE7704700BF034613F897
:10096000012B002AFBD1181A013870470000000043
:1009700001F0FF01102A2BDB10F0070F08D010F850
:10098000013B013A8B422DD010F0070F42B3F6D154
:10099000F0B441EA012141EA014122F007047FF06D
:1009A00000070023F0E80256083C85EA010586EAC4
:1009B000010685FA47F5A3FA87F586FA47F6A5FA00
:1009C00087F68EB9EED1F0BC01F0FF0102F007020C
:1009D00032B110F8013B013A83EA010313B1F8D1B7
:1009E0000020704701387047002D06BF3546033898
:1009F000073815F0010F07D1013015F4807F02BFD1
:100A0000013015F4C03F0130F0BC0138704700BF21
:100A100010B504460E4B18784FF47A73B3FBF0F31D
:100A20000C4A1068B0FBF3F000F0A6F868B90F2C80
:100A300001D9012010BD002221464FF0FF3000F007
:100A40005DF8034B5C60002010BD012010BD00BFAD
:100A5000000000200800002008B50B4B1A6842F483
:100A600000721A601A6842F480621A601A6842F4CE
:100A700080721A60032000F02FF80020FFF7C8FFF3
:100A800002F00EF9002008BD003C0240034A116844
:100A9000034B1B780B441360704700BF9800002085
:100AA00000000020014B1868704700BF980000202C
:100AB00038B50446FFF7F6FF0546B4F1FF3F02D014
:100AC000044B1B781C44FFF7EDFF401B8442FAD80F
:100AD00038BD00BF00000020074AD36823F4E0635C
:100AE0001B041B0C000200F4E060184340F0BF60E0
:100AF00040F40030D060704700ED00E030B4164B99
:100B0000DB68C3F30223C3F10704042C28BF0424C9
:100B10001D1D062D17D9033B012505FA04F4013CE0
:100B20002140994005FA03F3013B13401943002883
:100B30000BDB0901C9B200F1604000F5614080F8AB
:100B4000001330BC70470023E6E700F00F000901F6
:100B5000C9B2024B1954F4E700ED00E014ED00E0D7
:100B6000420900F01F00012303FA00F0014B43F893
:100B70002200704700E100E00138B0F1807F0AD226
:100B8000064B5860F021064A82F823100020986036
:100B900007221A6070470120704700BF10E000E094
:100BA00000ED00E0042805D0054A136823F0040393
:100BB00013607047024A136843F0040313607047E0
:100BC00010E000E0704708B5FFF7FCFF08BD00002B
:100BD000F0B583B0002498E04FEAD40E0EF1080E71
:100BE00050F82E2004F00706B6000F27B74022EA7F
:100BF00007020F6907FA06F6324340F82E2094E008
:100C000086681640CF6807FA0EF73E43866046684E
:100C100026EA03034E68C6F30016A640334343603A
:100C2000C3681A408B6803FA0EF31A43C2604B681C
:100C300013F0805F68D000230193514B5A6C42F44B
:100C400080425A645B6C03F480430193019BA308C8
:100C50009E1C4C4A52F8262004F003064FEA860EEA
:100C60000F2606FA0EF622EA0602474FB84279D05E
:100C7000464EB04278D006F58066B04276D006F592
:100C80008066B04274D006F58066B04272D006F538
:100C90008066B04270D006F58066B04260D007260C
:100CA00006FA0EF632430233364E46F82320384B0E
:100CB0001A68EB4302EA03064F6817F4803F01D03D
:100CC00045EA0206324A1660526803EA02064F6895
:100CD00017F4003F01D045EA02062D4A566092689B
:100CE00003EA02064F6817F4801F01D045EA0206A6
:100CF000274A9660D26813404E6816F4001F01D050
:100D000045EA0203224AD36001340F2C36D801236E
:100D1000A3400A6803EA0205AB42F5D14A68022AF9
:100D20003FF45AAF122A3FF457AF06684FEA440E19
:100D3000032202FA0EF2D24316404F6807F003076F
:100D400007FA0EF73E4306604E68771E012F7FF6C6
:100D500057AF112E3FF454AF122E7FF461AF4FE71F
:100D600006269DE700269BE7012699E7022697E7DE
:100D7000032695E7042693E7052691E703B0F0BD27
:100D800000380240003801400000024000040240E8
:100D9000003C014003685A6912F4806F0DD06FF473
:100DA00080625A610423036400230363202280F8D5
:100DB0003D2080F83C300120704700207047F8B596
:100DC00006460C4617461D461EE02DB1FFF76AFE8B
:100DD000069BC01A854217D200233363202286F86F
:100DE0003D2086F83E3086F83C300320F8BD33685D
:100DF0005B6924EA03039BB2B3FA83F35B09BB424A
:100E00000FD1B5F1FF3FE0D1C4F30743012BEED082
:100E100033689B6924EA03039BB2B3FA83F35B094B
:100E2000EDE70020F8BDF8B504460D4616461F460E
:100E300032E01A6842F400721A6023686FF480622C
:100E40005A610423236400232363202284F83D2075
:100E500084F83C300120F8BD26B1FFF723FEC01B0B
:100E6000864219D200232363202284F83D2084F88F
:100E70003C300320F8BD23685B6925EA03039BB27D
:100E8000003318BF0123A3B123685A6912F4806F9D
:100E9000CFD1B6F1FF3FDFD1C5F30743012BEAD035
:100EA00023689B6925EA03039BB2003318BF012323
:100EB000E9E70020F8BD0000F0B583B004460F4616
:100EC00015461E46C36A042B0DD0012B0BD013F51B
:100ED000803F08D0036B122B0AD10268136843F4D9
:100EE0008073136004E02268136843F48073136016
:100EF00000962B4600224FF001112046FFF75FFFBE
:100F000018B10323184603B0F0BD2369B3F5804F31
:100F100012D02268FB1103F0060343F0F0031361C3
:100F200033462A4611492046FFF77DFFC0B1236CA6
:100F3000042B13D00323E5E7236807F0FE071F61A6
:100F400033462A460A492046FFF76DFF034600282C
:100F5000D8D0236C042B07D00323D3E70123D1E798
:100F60002368FFB21F61EBE70123CBE70800010014
:100F7000020001002DE9F04184B004460F461546F9
:100F80001E46C26A01680B6843F480630B60042A42
:100F90000DD0012A0BD012F5803F08D0036B112B26
:100FA0000AD10268136843F48073136004E0226876
:100FB000136843F48073136000962B4600224FF0B1
:100FC00001112046FFF7FBFE20B10323184604B0B1
:100FD000BDE8F0812369B3F5804F13D023684FEA51
:100FE000E71808F0060848F0F0021A6133462A466E
:100FF00026492046FFF717FFC8B1236C042B14D0F5
:101000000323E3E7236847F00107FFB21F6133467C
:101010002A461F492046FFF706FF03460028D5D081
:10102000236C042B2FD00323D0E70123CEE72368C2
:10103000FFB21F6133462A4615492046FFF7F3FEEB
:1010400030B1236C042B01D00323BFE70123BDE79C
:1010500000220392236859690391996903910399C6
:10106000196841F48071196000962B464FF0011108
:101070002046FFF7A4FE08B10323A7E7226848F043
:10108000F1031361C3E70123A0E700BF08000100DB
:101090000200010070B504460D46164623685B69E0
:1010A00013F0800F19D12046FFF774FEB8B9B5F1DF
:1010B000FF3FF3D025B1FFF7F5FC801B8542EDD251
:1010C000236C43F02003236400232363202284F84D
:1010D0003D2084F83C30032070BD002070BD01200D
:1010E00070BD70B504460D46164623685B6913F063
:1010F000040F19D12046FFF74DFEB8B9B5F1FF3FF7
:10110000F3D025B1FFF7CEFC801B8542EDD2236CD6
:1011100043F02003236400232363202284F83D202E
:1011200084F83C30032070BD002070BD012070BDEC
:1011300070B505460C4616462B685A6912F0400FEA
:1011400022D15A6912F0100F11D124B1FFF7AAFC75
:10115000801B8442F0D22B6C43F020032B642023AD
:1011600085F83D30002385F83C30032070BD6FF0DA
:1011700010025A6100232B642B63202285F83D2046
:1011800085F83C30012070BD002070BD002800F0C3
:10119000828038B5044690F83D30002B41D024239E
:1011A00084F83D302268136823F00103136000F0D7
:1011B00069FB3A4BA3FB00239B0C22685360216818
:1011C0006568374A954231D801330B6221686368FC
:1011D000334A934234D85B00B0FBF3F0C0F30B0307
:1011E000032B00D80420C8612268E369216A0B43FD
:1011F000136022682369E1680B4393602268636986
:10120000A1690B43D3602268136843F001031360A4
:1012100000202064202384F83D30206384F83E00C1
:1012200038BD80F83C3001F085FDB8E74FF4967288
:1012300002FB03F31B4AA2FB03239B090133C4E710
:10124000A5688DB903EB4302B0FBF2F2C2F30B02C7
:10125000B2FA82F25209E2B995B903EB4303B0FB4B
:10126000F3F040F40040BEE703EB830202EB82029E
:10127000B0FBF2F2C2F30B02B2FA82F25209EAE7D1
:1012800003EB830303EB8303B0FBF3F040F4404034
:10129000A9E70120A7E70120704700BF83DE1B43B9
:1012A000A0860100D34D62102DE9F04184B00446C0
:1012B0000D4690461F46FFF7F5FB94F83D30DBB234
:1012C000202B04D00225284604B0BDE8F081064654
:1012D00000901923012254492046FFF770FD08B100
:1012E0000225F0E794F83C30012B00F09A800123AE
:1012F00084F83C3023681A6812F0010F03D11A6891
:1013000042F001021A602268136823F4006313603C
:10131000212384F83D30102384F83E3000232364D9
:10132000C4F824806785A3F58033E362638D238549
:1013300033460A9A29462046FFF7BEFD054660B1AE
:10134000236C042B04D0002384F83C300325BAE737
:10135000002384F83C300125B5E70023039323687C
:101360005A6903929B690393039B12E0236C042B3D
:1013700001D00325A7E72268136843F400731360C4
:101380000125A0E732460A992046FFF7AAFE002869
:101390002DD1238D002B36D032460A992046FFF7F7
:1013A00079FE0028E2D12268636A591C61621B78C9
:1013B0001361638D9BB2013B9BB26385238D013B1F
:1013C0009BB223852268516911F0040FDAD0002BFB
:1013D000D8D0636A591C61621B781361638D9BB21C
:1013E000013B9BB26385238D013B2385CAE7236CB8
:1013F000042B01D0032566E72268136843F40073C9
:10140000136001255FE72268136843F400731360DB
:10141000202384F83D30002384F83E3084F83C30AB
:1014200051E702254FE700BF020010002DE9F0410F
:1014300086B004460D4690461F46FFF733FB94F8EE
:101440003D30DBB2202B04D00225284606B0BDE893
:10145000F08106460090192301228F492046FFF7AC
:10146000AEFC08B10225F0E794F83C30012B00F007
:101470004C81012384F83C3023681A6812F0010F74
:1014800003D11A6842F001021A602268136823F43B
:1014900000631360222384F83D30102384F83E302B
:1014A00000232364C4F824806785A3F58033E362B6
:1014B000638D238533460C9A29462046FFF75AFD53
:1014C000054660B1236C042B04D0002384F83C3023
:1014D0000325BAE7002384F83C300125B5E7238DC6
:1014E0005BB9029323685A6902929A690292029A3E
:1014F0001A6842F400721A607DE0012B0FD0022BB3
:101500001FD02268136843F480631360002305939F
:1015100023685A6905929B690593059B6BE02268D5
:10152000136823F4806313600023039323685A69CC
:1015300003929A690392039A1A6842F400721A603D
:1015400059E02268136823F48063136022681368EB
:1015500043F4006313600023049323685A690492E0
:101560009B690493049B46E032460C992046FFF7A2
:10157000DFFD70B9636A5A1C6262226812691A70D0
:10158000238D013B2385638D9BB2013B9BB2638519
:1015900031E0236C202B01D0012556E7032554E7C9
:1015A00000960C9B00223D492046FFF708FC0028CE
:1015B00040F0AD802268136843F400731360636ADF
:1015C0005A1C6262226812691A70238D013B2385BE
:1015D000638D9BB2013B9BB26385636A5A1C626256
:1015E000226812691A70238D013B2385638D9BB29B
:1015F000013B9BB26385238D002B7DD0032B4FD8FD
:10160000012BB1D0022BCBD000960C9B002223499A
:101610002046FFF7D4FB00287BD12268136823F40F
:1016200080631360636A5A1C6262226812691A70CE
:10163000238D013B2385638D9BB2013B9BB2638568
:1016400000960C9B002215492046FFF7B8FB0028A6
:1016500061D12268136843F400731360636A5A1CF3
:101660006262226812691A70238D013B2385638DA3
:101670009BB2013B9BB26385636A5A1C626222681B
:1016800012691A70238D013B2385638D9BB2013B48
:101690009BB26385AFE700BF0200100004000100A9
:1016A00032460C992046FFF743FD00BB636A5A1C83
:1016B0006262226812691A70238D013B2385638D53
:1016C0009BB2013B9BB2638523685A6912F0040FF9
:1016D00091D0626A511C61621B691370238D013BBA
:1016E0002385638D9BB2013B9BB2638583E7236CAB
:1016F000202B12D10325A8E6202384F83D300023B7
:1017000084F83E3084F83C309FE602259DE60325B0
:101710009BE6032599E6032597E6012595E600BF9C
:10172000002800F09D8070B504464F4B1B6803F005
:101730000F038B4209D2CBB24B4A1370136803F0EC
:101740000F03994201D0012070BD236813F0020FEE
:1017500017D013F0040F04D0444A936843F4E053C5
:101760009360236813F0080F04D0404A936843F451
:10177000604393603D4A936823F0F003A0680343FD
:1017800093600D46236813F0010F32D06368012B7C
:1017900021D09A1E012A25D9344A126812F0020F6C
:1017A00060D032498A6822F0030213438B60FFF74E
:1017B00079F906462D4B9B6803F00C036268B3EB86
:1017C000820F16D0FFF76EF9801B41F288339842E2
:1017D000F0D9032070BD254A126812F4003FE0D111
:1017E000012070BD214A126812F0007FD9D101207A
:1017F00070BD1D4B1B6803F00F039D4209D2EAB276
:10180000194B1A701B6803F00F039D4201D0012091
:1018100070BD236813F0040F06D0144A936823F4B4
:10182000E053E1680B439360236813F0080F07D07F
:101830000E4A936823F46043216943EAC10393602D
:1018400000F040F8094B9B68C3F30313084AD35CCC
:10185000D840084B18600020FFF7DAF8002070BD70
:1018600001207047012070BD003C0240003802405A
:10187000D837000808000020014B1868704700BFE7
:101880000800002008B5FFF7F7FF044B9B68C3F37F
:101890008223034AD35CD84008BD00BF0038024011
:1018A000E837000808B5FFF7E7FF044B9B68C3F370
:1018B0004233034AD35CD84008BD00BF0038024021
:1018C000E8370008F8B5444B9B6803F00C03082B7D
:1018D00005D00C2B41D0042B7BD04048F8BD3E4BAB
:1018E0005A6802F03F025B6813F4800F12D03A4B43
:1018F0005968C1F3881100233948A1FB0001FEF7A4
:10190000A5FE354B5B68C3F3014301335B00B0FBBD
:10191000F3F0F8BD304B5B68C3F388131E46002715
:101920005C010025E41A65EB0705A90141EA946111
:10193000A001001B61EB0501CB0043EA5073C4001A
:10194000A01943EB07018B0243EA9053840220461F
:1019500019460023FEF77AFED3E71F4B5A6802F0C0
:101960003F025B6813F4800F10D01B4B5968C1F322
:10197000881100231A48A1FB0001FEF767FE164BF1
:101980005B68C3F30273B0FBF3F0F8BD124B5B6806
:10199000C3F388131E4600275C010025E41A65EB9B
:1019A0000705A90141EA9461A001001B61EB050153
:1019B000CB0043EA5073C400A01943EB07018B022C
:1019C00043EA90538402204619460023FEF73EFE68
:1019D000D5E70348F8BD00BF003802400024F400FA
:1019E00040787D0170B582B00446036813F0010FA2
:1019F00041D0A64B9B6803F00C03042B32D0A34BC1
:101A00009B6803F00C03082B27D0A04B9B6803F0C6
:101A10000C030C2B59D06368B3F5803F5BD0B3F552
:101A2000A02F5ED0994B1A6822F480321A601A688F
:101A300022F480221A606368002B5CD0FFF732F832
:101A40000546924B1B6813F4003F14D1FFF72AF8A8
:101A5000401B6428F5D903209DE18C4B5B6813F48F
:101A6000800FD2D0894B1B6813F4003F03D063680A
:101A7000002B00F08D81236813F0020F67D0834B99
:101A80009B6813F00C0F4AD0804B9B6803F00C034B
:101A9000082B3FD07D4B9B6803F00C030C2B48D0E8
:101AA000E368002B74D00122794B1A60FEF7FAFF2D
:101AB0000546764B1B6813F0020F60D1FEF7F2FF6C
:101AC000401B0228F5D9032065E1704B5B6813F4D5
:101AD000800FA0D0C6E76D4A136843F480331360CB
:101AE000A9E76A4B1A6842F480221A601A6842F425
:101AF00080321A609FE7FEF7D5FF0546634B1B68EF
:101B000013F4003FB7D0FEF7CDFF401B6428F5D992
:101B1000032040E15D4B5B6813F4800FBAD15B4B4F
:101B20001B6813F0020F0AD0E368012B07D00120D5
:101B300031E1564B5B6813F4800FB1D1EFE7534AA4
:101B4000136823F0F803216943EAC1031360236893
:101B500013F0080F40D0636963B301224D4B1A6044
:101B6000FEF7A0FF0546494B5B6F13F0020F33D120
:101B7000FEF798FF401B0228F5D903200BE1434AEA
:101B8000136823F0F803216943EAC1031360DEE719
:101B900000223F4B1A60FEF785FF05463B4B1B6852
:101BA00013F0020FD3D0FEF77DFF401B0228F5D9BA
:101BB0000320F0E00022374B1A60FEF773FF054662
:101BC000324B5B6F13F0020F06D0FEF76BFF401B2A
:101BD0000228F5D90320DEE0236813F0040F79D042
:101BE0002A4B1B6C13F0805F33D100230193274BEA
:101BF0001A6C42F080521A641B6C03F080530193FC
:101C0000019B0125244B1B6813F4807F23D0A3681C
:101C1000012B34D0052B41D01C4B1A6F22F001024E
:101C20001A671A6F22F004021A67A368002B3FD0CC
:101C3000FEF738FF0646154B1B6F13F0020F48D115
:101C4000FEF730FF801B41F288339842F3D903201E
:101C5000A1E00025D6E7104A136843F480731360AF
:101C6000FEF720FF06460C4B1B6813F4807FCED195
:101C7000FEF718FF801B0228F5D903208BE0034AEA
:101C8000136F43F001031367CFE700BF0038024032
:101C900000004742800E474200700040404B1A6FE0
:101CA00042F004021A671A6F42F001021A67BCE799
:101CB000FEF7F8FE06463A4B1B6F13F0020F08D0F2
:101CC000FEF7F0FE801B41F288339842F3D90320DF
:101CD00061E0E5B9A369002B5CD0314A926802F05B
:101CE0000C02082A59D0022B17D000222D4B1A6063
:101CF000FEF7D8FE04462A4B1B6813F0007F45D040
:101D0000FEF7D0FE001B0228F5D9032043E0244A49
:101D1000136C23F080531364DCE70022214B1A601C
:101D2000FEF7C0FE05461E4B1B6813F0007F06D071
:101D3000FEF7B8FE401B0228F5D903202BE0E3692B
:101D4000226A1343626A43EA8213A26A5208013A82
:101D500043EA0243E26A43EA0263226B43EA027304
:101D60000F4A536001220F4B1A60FEF79BFE044698
:101D70000B4B1B6813F0007F06D1FEF793FE001B90
:101D80000228F5D9032006E0002004E0002002E04C
:101D9000012000E0002002B070BD0120FBE700BF81
:101DA00000380240600047427047704770477047F4
:101DB000704710B5044603681A6912F0020F11D07B
:101DC000DA6812F0020F0DD06FF002021A610123DF
:101DD000037603689B6913F0030F70D0FFF7E6FFEB
:101DE0000023237623681A6912F0040F12D0DA68F0
:101DF00012F0040F0ED06FF004021A610223237652
:101E000023689B6913F4407F5FD02046FFF7CEFF25
:101E10000023237623681A6912F0080F12D0DA68BB
:101E200012F0080F0ED06FF008021A610423237617
:101E30002368DB6913F0030F4ED02046FFF7B6FF8F
:101E40000023237623681A6912F0100F12D0DA6883
:101E500012F0100F0ED06FF010021A6108232376D3
:101E60002368DB6913F4407F3DD02046FFF79EFFD7
:101E70000023237623681A6912F0010F03D0DA6871
:101E800012F0010F36D123681A6912F0800F03D0C7
:101E9000DA6812F0800F34D123681A6912F0400F0B
:101EA00003D0DA6812F0400F32D123681A6912F0B9
:101EB000200F03D0DA6812F0200F30D110BDFFF7E9
:101EC00074FF2046FFF773FF8AE72046FFF76DFF98
:101ED0002046FFF76CFF9BE72046FFF766FF204692
:101EE000FFF765FFACE72046FFF75FFF2046FFF7EF
:101EF0005EFFBDE76FF001021A612046FFF754FF55
:101F0000C1E76FF080021A61204600F0E0F8C3E7F5
:101F10006FF040021A612046FFF74AFFC5E76FF0F5
:101F200020021A61204600F0D1F8C7E70368454A4D
:101F300090424AD0B0F1804F49D0A2F57C42904205
:101F400047D002F58062904245D002F5806290420F
:101F500043D002F57842904235D000221AB123F0E6
:101F600070034A681343374A90423AD0B0F1804F29
:101F700050D0A2F57C4290424ED002F58062904251
:101F80004CD002F5806290424AD002F578429042ED
:101F900048D002F57052904246D002F580629042DD
:101FA00044D002F58062904242D0A2F5983290422D
:101FB00040D002F5806290423ED002F580629042AD
:101FC0000DD000220EE00122C8E70122C6E701225F
:101FD000C4E70122C2E70122C0E70122BEE70122D5
:101FE00000E001221AB123F44073CA68134303606E
:101FF0008B68C3620B688362124B984220D003F552
:10200000806398421AD000230BB10B69036301234C
:10201000436170470122E5E70122E3E70122E1E79E
:102020000122DFE70122DDE70122DBE70122D9E718
:102030000122D7E70122D5E70122D3E70123E3E715
:102040000123E1E700000140A8B110B5044690F873
:1020500039305BB1022384F83930211D2068FFF745
:1020600065FF012384F83930002010BD80F8383036
:1020700000F08CFEEEE70120704790F83830012B1D
:1020800022D030B4012280F83820022380F8393081
:102090000468636823F070036360046863680D6814
:1020A0002B4363600468A36823F08003A360046883
:1020B000A36849680B43A36080F83920002380F8A7
:1020C0003830184630BC7047022070477047704760
:1020D0002DE9F04704460268136923F44053C168B0
:1020E0000B4313610168CB6823F4164323F00C0300
:1020F00082680069024360690243E0690243134356
:10210000CB602268536923F44073A1690B43536188
:10211000E369B3F5004F62D0D4F80080BB4B98451B
:1021200000F01B8103F58063984500F01681FFF7EE
:10213000A9FB00EB800000EB80006568AD00B0FB00
:10214000F5F5B34FA7FB05356D092E01FFF79AFB97
:1021500000EB800000EB80006568AD00B0FBF5FA95
:10216000FFF790FB00EB800000EB80006568AD009E
:10217000B0FBF5F5A7FB05356D094FF0640909FBC8
:1021800015A52D013235A7FB05356D0905F0F005C4
:102190003544FFF777FB00EB800000EB80006668BA
:1021A000B600B0FBF6F6FFF76DFB00EB800000EB2E
:1021B000800063689B00B0FBF3F0A7FB0030400990
:1021C00009FB10694FEA091909F13209A7FB093720
:1021D000C7F343172F44C8F80870BDE8F087D4F858
:1021E000008003F1804303F5104398455CD003F56C
:1021F0008063984558D0FFF745FB00EB800000EB6B
:10220000800065686D00B0FBF5F5814FA7FB0535D3
:102210006D092E01FFF736FB00EB800000EB80001C
:1022200065686D00B0FBF5FAFFF72CFB00EB800052
:1022300000EB800065686D00B0FBF5F5A7FB053588
:102240006D094FF0640909FB15A5ED003235A7FBB8
:1022500005356D096D0005F4F8753544FFF712FB7F
:1022600000EB800000EB800066687600B0FBF6F6BD
:10227000FFF708FB00EB800000EB800063685B0069
:10228000B0FBF3F3A7FB03235B0909FB13694FEAD8
:10229000C90909F13209A7FB0937C7F342172F44CF
:1022A000C8F80870BDE8F087FFF7FCFA00EB800083
:1022B00000EB800065686D00B0FBF5F5544FA7FB9F
:1022C00005356D092E01FFF7EDFA00EB800000EBFC
:1022D000800065686D00B0FBF5FAFFF7E3FA00EBEC
:1022E000800000EB800065686D00B0FBF5F5A7FB92
:1022F00005356D094FF0640909FB15A5ED00323570
:10230000A7FB05356D096D0005F4F8753544FFF739
:10231000C9FA00EB800000EB800066687600B0FB35
:10232000F6F6FFF7BFFA00EB800000EB8000636871
:102330005B00B0FBF3F3A7FB03235B0909FB136905
:102340004FEAC90909F13209A7FB0937C7F3421758
:102350002F44C8F80870BDE8F087FFF7A3FA00EB38
:10236000800000EB80006568AD00B0FBF5F5284FFC
:10237000A7FB05356D092E01FFF794FA00EB8000ED
:1023800000EB80006568AD00B0FBF5FAFFF78AFA54
:1023900000EB800000EB80006568AD00B0FBF5F558
:1023A000A7FB05356D094FF0640909FB15A52D0143
:1023B0003235A7FB05356D0905F0F0053544FFF70B
:1023C00071FA00EB800000EB80006668B600B0FB9D
:1023D000F6F6FFF767FA00EB800000EB8000636819
:1023E0009B00B0FBF3F3A7FB03235B0909FB136915
:1023F0004FEA091909F13209A7FB0937C7F3431757
:102400002F44C8F80870BDE8F08700BF00100140F5
:102410001F85EB512DE9F04105460F4616469846BB
:10242000069C2B681B6837EA03030CBF01230023BB
:10243000B3421ED1B4F1FF3FF3D02CB1FEF732FB13
:10244000A0EB08008442ECD22A68D36823F4D0734E
:10245000D3602A68536923F001035361202385F870
:10246000393085F83A30002385F838300320BDE84C
:10247000F0810020BDE8F08158B310B5044690F813
:1024800039300BB3242384F839302268D36823F41D
:102490000053D3602046FFF71BFE2268136923F424
:1024A000904313612268536923F02A035361226821
:1024B000D36843F40053D3600020E063202384F802
:1024C000393084F83A3010BD80F8383000F076FCAE
:1024D000D8E7012070472DE9F04182B01E4690F800
:1024E0003930DBB2202B04D00223184602B0BDE8FD
:1024F000F08104460D469046002955D0002A55D05B
:1025000090F83830012B01D10223EEE7012380F847
:1025100038300023C363212380F83930FEF7C2FA34
:102520000746A4F82480A4F8268010E000963B46D5
:10253000002280212046FFF76DFF002838D1226855
:102540002B88C3F3080353602369CBB90235E38CAE
:102550009BB2BBB1E38C9BB2013B9BB2E384A3680B
:10256000B3F5805FE2D000963B46002280212046F2
:10257000FFF750FFF0B923682A785A600135E6E783
:102580000135E4E700963B46002240212046FFF754
:1025900041FF034608B10323A7E7202284F839202E
:1025A000002284F83820A0E701239EE701239CE75E
:1025B00003239AE7032398E782B0002100910B4B95
:1025C0001A6B42F001021A631A6B02F001020092C8
:1025D000009A01911A6B42F002021A631B6B03F01E
:1025E00002030193019B02B0704700BF0038024014
:1025F00008B5002211463620FEF780FA3620FEF795
:10260000AFFA08BD38B50546FEF7A8F9064C052314
:1026100082B229462046FFF75EFF02231A4603498D
:102620002046FFF758FF38BDFC010020F0370008B6
:1026300070B584B08DF80C10130A8DF80D308DF83C
:102640000E200546084C64260096032303AA014683
:102650002046FEF729FE0096032303AA29462046BA
:10266000FEF722FE04B070BD00010020F0B585B079
:10267000174604AA02F8011D0546084C6426009678
:10268000012301462046FEF70FFE009602233A463C
:1026900029462046FEF7CAFE05B0F0BD0001002025
:1026A00070B53A4D2A463B21D120FFF7DFFF2B784A
:1026B0004FF47A7606FB03F3354C07EE903AF8EECA
:1026C000E77AC4ED007A2A463C21D120FFF7CEFFFD
:1026D0002B7807EE903AF8EEE77A94ED007A77EEF1
:1026E000877AC4ED007A2A463D21D120FFF7BEFF4C
:1026F0002B7806FB03F307EE903AF8EEE77AC4ED89
:10270000017A2A463E21D120FFF7B0FF2B7807EE51
:10271000903AF8EEE77A94ED017A77EE877AC4ED95
:10272000017A2A463F21D120FFF7A0FF2B7806FB34
:1027300003F607EE906AF8EEE77AC4ED027A2A46CD
:102740004021D120FFF792FF2B7807EE903AF8EE68
:10275000E77A94ED027A77EE877A94ED007A0D4B62
:10276000D3ED006A37EE667A84ED007A94ED017A53
:10277000D3ED016A37EE667A84ED017A93ED027A41
:1027800077EEC77AC4ED027A70BD00BF6401002005
:1027900054010020F0010020F0B585B00023019322
:1027A00002930393002774E0464C22463B21D1203C
:1027B000FFF75CFF23784FF47A7606FB03F3424D74
:1027C00007EE903AF8EEE77AC5ED007A22463C2112
:1027D000D120FFF74BFF237807EE903AF8EEE77A27
:1027E00095ED007A77EE877AC5ED007A22463D2195
:1027F000D120FFF73BFF237806FB03F307EE903A67
:10280000F8EEE77AC5ED017A22463E21D120FFF7A6
:102810002DFF237807EE903AF8EEE77A95ED017AEE
:1028200077EE877AC5ED017A22463F21D120FFF766
:102830001DFF237806FB03F607EE906AF8EEE77AB1
:10284000C5ED027A22464021D120FFF70FFF237801
:1028500007EE903AF8EEE77A95ED027A77EE877A0E
:10286000C5ED027AD5ED006A9DED017A37EE267A44
:102870008DED017AD5ED016A9DED027A37EE267A6B
:102880008DED027A9DED037A77EE277ACDED037A0E
:102890000137092F88DDDFED0D7A9DED017A87EE96
:1028A000276A9DED027AC7EE276ADDED035A85EEB1
:1028B000A77A074B83ED006AC3ED016A83ED027AC4
:1028C00005B0F0BD64010020540100200000C842A2
:1028D000F001002070B52F4C22464321D120FFF794
:1028E000C5FE23784FF47A7606FB03F32A4D07EEF4
:1028F000903AF8EEE77AC5ED007A22464421D120DD
:10290000FFF7B4FE237807EE903AF8EEE77A95EDFC
:10291000007A77EE877AC5ED007A22464521D120EC
:10292000FFF7A4FE237806FB03F307EE903AF8EED8
:10293000E77AC5ED017A22464621D120FFF796FEBF
:10294000237807EE903AF8EEE77A95ED017A77EE84
:10295000877AC5ED017A22464721D120FFF786FE0E
:10296000237806FB03F607EE906AF8EEE77AC5EDEA
:10297000027A22464821D120FFF778FE237807EE1D
:10298000903AF8EEE77A95ED027A77EE877AC5ED20
:10299000027A70BD64010020680100200000000080
:1029A00038B51B4C22464121D120FFF75FFE22782B
:1029B0004FF47A7303FB02F3164D07EE903AF8EEEC
:1029C000E77AC5ED007A22464221D120FFF74EFE7C
:1029D000237807EE903AF8EEE77A95ED007A77EEF5
:1029E000877A9FED0D7AC7EE876A16EE900AFDF79B
:1029F00089FD05A3D3E90023FDF726FCFDF7D6FDED
:102A0000286038BDAFF30080A4703D0AD743424030
:102A100064010020600100200000AA4308B50022E4
:102A20006B21D020FFF704FE6420FEF741F810224E
:102A30001B21D020FFF7FCFD6420FEF739F80022AF
:102A40001C21D020FFF7F4FD6420FEF731F808BD0B
:102A5000FEE7000008B50B480B4B03600B4B4360CF
:102A60004FF4804282600023C3600261436183614E
:102A7000C3610362FEF78AFB00B908BDF521044873
:102A8000FFF7E6FF0001002000540040801A060016
:102A9000F437000808B50B480B4B03604FF4E133E3
:102AA000436000238360C36003610C224261836141
:102AB000C361FFF7E1FC00B908BD40F233110348E0
:102AC000FFF7C6FFFC01002000440040F437000877
:102AD00008B50B480B4B03604FF4E1334360002310
:102AE0008360C36003610C2242618361C361FFF7AD
:102AF000C3FC00B908BD4FF490710348FFF7A8FF6D
:102B00007401002000100140F437000800B583B0C4
:102B10001048114B036010234360002383604FF67D
:102B2000FF73C360FFF790FA50B90023009301933D
:102B300069460848FFF7A1FA38B903B05DF804FB0D
:102B40004FF483710548FFF783FF40F20D110348EE
:102B5000FFF77EFFB401002000100040F4370008AA
:102B600000B595B000220092244B196C41F08051C1
:102B700019641B6C03F080530093009B0192204961
:102B80000B6823F4404343F480430B600B6803F469
:102B900040430193019B0223079301230A931023CF
:102BA0000B930D9207A8FEF71DFFF0B90F230293B8
:102BB0000021039104910591069102A8FEF7B0FD52
:102BC000B8B9FEF759FE0F4BA3FB00308009FDF7A3
:102BD000D3FF0420FDF7E6FF002211464FF0FF303F
:102BE000FDF78CFF15B05DF804FBBE210648FFF72A
:102BF0002FFFCC210448FFF72BFF00BF0038024015
:102C000000700040D34D6210F437000800B583B067
:102C1000FDF722FFFFF7A4FFFFF7CEFCFFF71AFF37
:102C2000FFF738FFFFF754FFFFF770FFFFF7E0FCF7
:102C30001648FEF7ABFAFFF7F1FE154B00221A60BB
:102C40005A609A60FFF7A8FDFFF72AFDFFF742FEE2
:102C5000FFF7A6FE0F4B93ED007AD3ED016AD3ED9B
:102C6000027A0D4CFDEEE77ACDED007AFDEEE67AC4
:102C700017EE903AFDEEC77A17EE902A07492046E4
:102C800000F072F92046FFF7BDFCDDE700010020EF
:102C9000F0010020540100209C00002004380008AE
:102CA00010B582B000240094214B5A6C42F480424B
:102CB0005A645A6C02F480420092009A01941A6C91
:102CC00042F080521A641B6C03F080530193019B05
:102CD0000320FDF701FF224621466FF00B00FDF7B0
:102CE0000DFF224621466FF00A00FDF707FF22463E
:102CF00021466FF00900FDF701FF224621466FF0E3
:102D00000400FDF7FBFE224621466FF00300FDF7AD
:102D1000F5FE224621466FF00100FDF7EFFE224648
:102D200021464FF0FF30FDF7E9FE02B010BD00BFB5
:102D3000003802400268124B9A4200D0704700B53A
:102D400087B0C0230193122302930123039303232B
:102D50000493042305930DEB03010A48FDF738FFA4
:102D600000230093084B1A6C42F400121A641B6C87
:102D700003F400130093009B07B05DF804FB00BF51
:102D80000054004000040240003802400268094B31
:102D90009A4200D0704782B000230193064B1A6C10
:102DA00042F010021A641B6C03F010030193019BA4
:102DB00002B0EFE7001000400038024000B589B0D3
:102DC0000368204A934205D01F4A93421ED009B09F
:102DD0005DF804FB002301931C4B5A6C42F0100277
:102DE0005A645B6C03F010030193019B4FF4C063C2
:102DF00003930223049301230593032306930723DC
:102E0000079303A91248FDF7E3FEE0E700230293CE
:102E10000E4B1A6C42F400321A641B6C03F400333C
:102E20000293029B0C230393022304930123059333
:102E3000032306930723079303A90548FDF7C8FE5C
:102E4000C5E700BF001001400044004000380240C8
:102E5000000002407047FEE7FEE7FEE7FEE770472E
:102E60007047704708B5FDF711FEFDF7ACFE08BDD1
:102E700008B50248FEF79DFF08BD00BFB401002061
:102E80000F49D1F8883043F47003C1F888300D4BF6
:102E90001A6842F001021A60002098601A6822F055
:102EA000847222F480321A60074A5A601A6822F447
:102EB00080221A60D8604FF000638B60704700BFBB
:102EC00000ED00E00038024010300024DFF834D07C
:102ED000002103E00C4B5B58435004310B480C4B72
:102EE00042189A42F6D30B4A02E0002342F8043B10
:102EF000094B9A42F9D3FFF7C3FF00F011F8FFF72F
:102F000085FE7047000002205838000800000020AD
:102F1000700000207000002040020020FEE700004A
:102F200070B50D4E0D4CA41BA4100025A54209D16F
:102F30000B4E0C4C00F044FCA41BA4100025A54231
:102F400005D170BD56F8253098470135EEE756F8A3
:102F5000253098470135F2E750380008503800080E
:102F600050380008543800080EB400B59CB04FF437
:102F700002711DABADF81410029006906FF0004185
:102F80000A48049107914FF6FF7153F8042BADF8EE
:102F900016100068019302A900F066F8029B002257
:102FA0001A701CB05DF804EB03B070470C000020F1
:102FB0002DE9F0478E689E4282460C46914698461F
:102FC00035D88A8912F4906F31D0256809696F1A53
:102FD0006569022305EB450595FBF3F508F101034F
:102FE0003B449D4238BF1D46530531D5294600F06C
:102FF00039FB064650B90C23CAF80030A38943F0C8
:103000004003A3814FF0FF30BDE8F0873A462169C5
:1030100000F0B4FAA38923F4906343F08003A38102
:10302000266165613E44ED1B2660A5604646464527
:1030300028BF464632464946206800F0AAFAA368EF
:103040009B1BA36023681E4426600020BDE8F08718
:103050002A4600F065FB06460028E1D1216950466A
:1030600000F0B2FAC7E700002DE9F04F9DB08046AE
:1030700003938B891C060D4616460FD50B696BB959
:10308000402100F0EFFA2860286128B90C23C8F825
:1030900000304FF0FF30C5E040236B6100230993FF
:1030A00020238DF8293030238DF82A304FF0010B82
:1030B00037463C4614F8013B002B3CD1B7EB060ADF
:1030C0000BD05346324629464046FFF771FF013088
:1030D00000F0A380099B534409933B78002B00F038
:1030E0009C8000234FF0FF320493079305920693D0
:1030F0008DF853301A93052221785048FDF738FC9B
:10310000671C049BD8B9D90644BF20228DF85320F0
:103110001A0744BF2B228DF8532022782A2A16D072
:10312000079A00210A20274601343B78303B092BBF
:1031300051D9C9B111E0252BC0D02746B9E73F4A84
:10314000801A0BFA00F0184304903C46D3E7039A28
:10315000111D12680391002A01DB079204E052421C
:1031600043F00203079204933B782E2B0ED17B7819
:103170002A2B07F1010132D1039B1A1D1B68039210
:10318000002BB8BF4FF0FF33023705932C4C397832
:1031900003222046FDF7ECFB38B14023001B03FA65
:1031A00000F0049B034304930137397825488DF8D8
:1031B000281006227E1CFDF7DBFB002835D0224BB1
:1031C000FBB9039B073323F0070308330393099BE1
:1031D0004B4409936CE700FB02320121A3E7002373
:1031E000059318460A240F4601313A78303A092AE5
:1031F00003D9002BCAD00590C8E704FB00200123A7
:10320000F1E703AB00932A46104B04A94046AFF305
:103210000080B0F1FF3F8146D9D1AB895B063FF515
:1032200038AF09981DB0BDE8F08F03AB00932A4674
:10323000064B04A9404600F081F8EAE7143800087C
:103240001A3800081E38000800000000B12F0008DE
:103250002DE9F04791461F468A680B69DDF820800A
:103260009342B8BF1346C9F8003091F84320064690
:103270000C4612B10133C9F800302368990642BFE9
:10328000D9F800300233C9F80030256815F006057A
:1032900007D104F1190AE368D9F800209B1A9D426E
:1032A00029DB94F843302268003318BF01239206CB
:1032B0002ED404F1430239463046C047013021D0B4
:1032C0002368E568D9F8002003F00603042B08BF43
:1032D000AD1AA36822690CBF25EAE5750025934263
:1032E000C4BF9B1AED184FF000091A344D451BD18D
:1032F0000020BDE8F0870123524639463046C047DA
:10330000013003D14FF0FF30BDE8F0870135C2E74F
:10331000E1185A1C302081F84300224494F84510EB
:1033200082F843100233C4E701232246394630466F
:10333000C0470130E6D009F10109D7E72DE9F04394
:1033400017460A7E85B06E2A984606460C460C9BA8
:1033500001F1430E00F0BC801AD8632A2ED00AD89F
:10336000002A00F0C880582A00F08A8004F1420543
:1033700084F842202AE0642A01D0692AF6D1216823
:103380001A6811F0800F23D0111D1960136827E00F
:10339000732A00F0B48008D86F2A2AD0702AE5D1A9
:1033A0000A6842F020020A6003E0752A21D0782AD8
:1033B000DCD1782284F845206E4964E01A6801F176
:1033C0004205111D1960136884F842300123A3E0FF
:1033D00011F0400F02F104011960D7D0B2F90030AA
:1033E000002B03DA2D225B4284F8432062490A2233
:1033F00017E02068196810F0800F03D0081D1860CE
:103400000B6806E010F0400F01F104001860F7D0DF
:103410000B8859496F2A14BF0A220822002084F819
:1034200043006568A560002DC0F29C80206820F0F4
:1034300004002060002B3FD1002D40F095807546A0
:10344000082A0BD12368DA0708D5236962689A42F3
:10345000DEBF302305F8013C05F1FF35AEEB050377
:103460002361CDF800803B4603AA21463046FFF792
:10347000EFFE013055D14FF0FF3005B0BDE8F083CD
:1034800081F845203C492268186812F0800F00F14D
:1034900004051D6001D0036802E05506FBD50388D2
:1034A000D00744BF42F0200222601BB9226822F0FC
:1034B000200222601022B1E77546B3FBF2F002FB56
:1034C0001033CB5C05F8013D03460028F5D1B7E782
:1034D00008681A68496910F0800F04D0101D186040
:1034E0001368196007E010F0400F02F10400186043
:1034F0001368F6D01980002323617546B1E71A6876
:10350000111D19601568626800212846FDF730FA20
:1035100008B1401B606063682361002384F8433076
:103520009FE723692A4639463046C0470130A2D07A
:1035300023689B0707D5002504F11909E368039A5E
:103540009B1A9D4205DBE068039B9842B8BF184672
:1035500093E701234A4639463046C04701308AD0B6
:103560000135EBE7002BA7D10B7884F8423004F14A
:10357000420565E7363800082538000810B5431EB7
:103580000A44914200D110BD11F8014B03F8014FDC
:10359000F7E7884210B501EB020303D8421E9942B7
:1035A0000CD110BD9842F9D28118D21AD34200D161
:1035B00010BD13F8014D01F8014DF7E711F8014B6B
:1035C00002F8014FEBE7000038B50546002945D069
:1035D00051F8043C0C1F002BB8BFE41800F0D6F8DB
:1035E0001F4A1368104633B9636014602846BDE86B
:1035F000384000F0CCB8A3420CD92168621893423D
:1036000004BF1A685B68636004BF521822600460DC
:10361000ECE713465A680AB1A242FAD91968581859
:10362000A0420BD120680144581882421960DDD1B4
:10363000106852685A6001441960D7E702D90C2318
:103640002B60D3E7206821188A4204BF11685268B2
:10365000626004BF091821605C60C7E738BD00BF25
:103660008C00002070B5CD1C25F0030508350C2D0D
:1036700038BF0C25002D064601DBA94203D90C23D7
:103680003360002070BD00F081F8234A14682146A1
:1036900091B9224C23681BB9304600F067F82060CE
:1036A0002946304600F062F8431C26D10C233360D3
:1036B000304600F06CF8E4E70B685B1B1AD40B2B68
:1036C0000FD90B60CD50CC18304600F060F804F1F3
:1036D0000B00231D20F00700C31A1BD05A42E250F2
:1036E00070BD8C420DBF63684B686360136018BF88
:1036F0000C46E9E70C464968CAE7C41C24F00304F9
:10370000A04205D0211A304600F030F80130CDD06B
:103710002560D9E770BD00BF8C000020900000201C
:10372000F8B5074614460E4621B91146BDE8F840E3
:10373000FFF798BF22B9FFF747FF25462846F8BD97
:1037400000F026F884420FD921463846FFF78AFF59
:1037500005460028F2D031462246FFF70FFF3146DA
:103760003846FFF731FFE9E73546E7E738B5064C5D
:10377000002305460846236000F014F8431C02D1DC
:10378000236803B12B6038BD3C02002070477047AE
:1037900051F8040C0028A0F10400BCBF0B58C0185D
:1037A00070470000044A05491368002B08BF0B4608
:1037B0001844106018467047940000204002002012
:1037C000F8B500BFF8BC08BC9E467047F8B500BF0E
:0837D000F8BC08BC9E467047DE
:1037D80000000000000000000102030406070809B9
:1037E80000000000010203040D0A00002E2E2F53D2
:1037F80072632F6D61696E2E6300000025642009D5
:10380800202564200920256400000000232D302B8A
:103818002000686C4C0065666745464700303132C9
:103828003334353637383941424344454600303120
:10383800323334353637383961626364656600007F
:0838480034CEFF7F01000000F7
:04385000F501000876
:04385400D101000896
:1038580001000000100000000024F4001000002007
:103868000000000000000000000000000000000050
:103878000000000000000000000000000000000040
:103888000000000000000000000000000000000030
:103898000000000000000000000000000000000020
:1038A8000000000000000000000000000000000010
:1038B8000000000000000000000000000000000000
:0400000508002ECDF4
:00000001FF
